{
	"contracts/1_Storage.sol": {
		"Storage": {
			"abi": [
				{
					"inputs": [
						{
							"internalType": "string",
							"name": "_gpa",
							"type": "string"
						},
						{
							"internalType": "string",
							"name": "semesterName",
							"type": "string"
						},
						{
							"internalType": "uint256",
							"name": "_studentID",
							"type": "uint256"
						},
						{
							"internalType": "uint256",
							"name": "_courseTaken",
							"type": "uint256"
						}
					],
					"name": "addStudent",
					"outputs": [],
					"stateMutability": "nonpayable",
					"type": "function"
				},
				{
					"inputs": [],
					"name": "getStudents",
					"outputs": [
						{
							"components": [
								{
									"internalType": "string",
									"name": "gpa",
									"type": "string"
								},
								{
									"internalType": "string",
									"name": "semesterName",
									"type": "string"
								},
								{
									"internalType": "uint256",
									"name": "studentID",
									"type": "uint256"
								},
								{
									"internalType": "uint256",
									"name": "courseTaken",
									"type": "uint256"
								}
							],
							"internalType": "struct Storage.Student[]",
							"name": "",
							"type": "tuple[]"
						}
					],
					"stateMutability": "view",
					"type": "function"
				}
			],
			"devdoc": {
				"custom:dev-run-script": "./scripts/deploy_with_ethers.ts",
				"details": "Store & retrieve value in a variable",
				"kind": "dev",
				"methods": {},
				"title": "Storage",
				"version": 1
			},
			"evm": {
				"assembly": "    /* \"contracts/1_Storage.sol\":232:850  contract Storage {... */\n  mstore(0x40, 0x80)\n  callvalue\n  dup1\n  iszero\n  tag_1\n  jumpi\n  revert(0x00, 0x00)\ntag_1:\n  pop\n  dataSize(sub_0)\n  dup1\n  dataOffset(sub_0)\n  0x00\n  codecopy\n  0x00\n  return\nstop\n\nsub_0: assembly {\n        /* \"contracts/1_Storage.sol\":232:850  contract Storage {... */\n      mstore(0x40, 0x80)\n      callvalue\n      dup1\n      iszero\n      tag_1\n      jumpi\n      revert(0x00, 0x00)\n    tag_1:\n      pop\n      jumpi(tag_2, lt(calldatasize, 0x04))\n      shr(0xe0, calldataload(0x00))\n      dup1\n      0x78529ead\n      eq\n      tag_3\n      jumpi\n      dup1\n      0xf1d064b3\n      eq\n      tag_4\n      jumpi\n    tag_2:\n      revert(0x00, 0x00)\n        /* \"contracts/1_Storage.sol\":490:748  function addStudent(string memory _gpa, string memory semesterName, uint256 _studentID, uint _courseTaken ) public {... */\n    tag_3:\n      tag_5\n      0x04\n      dup1\n      calldatasize\n      sub\n      dup2\n      add\n      swap1\n      tag_6\n      swap2\n      swap1\n      tag_7\n      jump\t// in\n    tag_6:\n      tag_8\n      jump\t// in\n    tag_5:\n      stop\n        /* \"contracts/1_Storage.sol\":753:848  function getStudents() public view returns(Student[] memory){... */\n    tag_4:\n      tag_9\n      tag_10\n      jump\t// in\n    tag_9:\n      mload(0x40)\n      tag_11\n      swap2\n      swap1\n      tag_12\n      jump\t// in\n    tag_11:\n      mload(0x40)\n      dup1\n      swap2\n      sub\n      swap1\n      return\n        /* \"contracts/1_Storage.sol\":490:748  function addStudent(string memory _gpa, string memory semesterName, uint256 _studentID, uint _courseTaken ) public {... */\n    tag_8:\n        /* \"contracts/1_Storage.sol\":614:642  Student memory newStudentSem */\n      0x00\n        /* \"contracts/1_Storage.sol\":645:700  Student( _gpa, semesterName, _studentID, _courseTaken ) */\n      mload(0x40)\n      dup1\n      0x80\n      add\n      0x40\n      mstore\n      dup1\n        /* \"contracts/1_Storage.sol\":654:658  _gpa */\n      dup7\n        /* \"contracts/1_Storage.sol\":645:700  Student( _gpa, semesterName, _studentID, _courseTaken ) */\n      dup2\n      mstore\n      0x20\n      add\n        /* \"contracts/1_Storage.sol\":660:672  semesterName */\n      dup6\n        /* \"contracts/1_Storage.sol\":645:700  Student( _gpa, semesterName, _studentID, _courseTaken ) */\n      dup2\n      mstore\n      0x20\n      add\n        /* \"contracts/1_Storage.sol\":674:684  _studentID */\n      dup5\n        /* \"contracts/1_Storage.sol\":645:700  Student( _gpa, semesterName, _studentID, _courseTaken ) */\n      dup2\n      mstore\n      0x20\n      add\n        /* \"contracts/1_Storage.sol\":686:698  _courseTaken */\n      dup4\n        /* \"contracts/1_Storage.sol\":645:700  Student( _gpa, semesterName, _studentID, _courseTaken ) */\n      dup2\n      mstore\n      pop\n        /* \"contracts/1_Storage.sol\":614:700  Student memory newStudentSem = Student( _gpa, semesterName, _studentID, _courseTaken ) */\n      swap1\n      pop\n        /* \"contracts/1_Storage.sol\":709:721  semesterData */\n      0x00\n        /* \"contracts/1_Storage.sol\":728:741  newStudentSem */\n      dup2\n        /* \"contracts/1_Storage.sol\":709:743  semesterData.push( newStudentSem ) */\n      swap1\n      dup1\n      0x01\n      dup2\n      sload\n      add\n      dup1\n      dup3\n      sstore\n      dup1\n      swap2\n      pop\n      pop\n      0x01\n      swap1\n      sub\n      swap1\n      0x00\n      mstore\n      keccak256(0x00, 0x20)\n      swap1\n      0x04\n      mul\n      add\n      0x00\n      swap1\n      swap2\n      swap1\n      swap2\n      swap1\n      swap2\n      pop\n      0x00\n      dup3\n      add\n      mload\n      dup2\n      0x00\n      add\n      swap1\n      dup2\n      tag_15\n      swap2\n      swap1\n      tag_16\n      jump\t// in\n    tag_15:\n      pop\n      0x20\n      dup3\n      add\n      mload\n      dup2\n      0x01\n      add\n      swap1\n      dup2\n      tag_17\n      swap2\n      swap1\n      tag_16\n      jump\t// in\n    tag_17:\n      pop\n      0x40\n      dup3\n      add\n      mload\n      dup2\n      0x02\n      add\n      sstore\n      0x60\n      dup3\n      add\n      mload\n      dup2\n      0x03\n      add\n      sstore\n      pop\n      pop\n        /* \"contracts/1_Storage.sol\":605:748  {... */\n      pop\n        /* \"contracts/1_Storage.sol\":490:748  function addStudent(string memory _gpa, string memory semesterName, uint256 _studentID, uint _courseTaken ) public {... */\n      pop\n      pop\n      pop\n      pop\n      jump\t// out\n        /* \"contracts/1_Storage.sol\":753:848  function getStudents() public view returns(Student[] memory){... */\n    tag_10:\n        /* \"contracts/1_Storage.sol\":796:812  Student[] memory */\n      0x60\n        /* \"contracts/1_Storage.sol\":829:841  semesterData */\n      0x00\n        /* \"contracts/1_Storage.sol\":822:841  return semesterData */\n      dup1\n      sload\n      dup1\n      0x20\n      mul\n      0x20\n      add\n      mload(0x40)\n      swap1\n      dup2\n      add\n      0x40\n      mstore\n      dup1\n      swap3\n      swap2\n      swap1\n      dup2\n      dup2\n      mstore\n      0x20\n      add\n      0x00\n      swap1\n    tag_19:\n      dup3\n      dup3\n      lt\n      iszero\n      tag_20\n      jumpi\n      dup4\n      dup3\n      swap1\n      0x00\n      mstore\n      keccak256(0x00, 0x20)\n      swap1\n      0x04\n      mul\n      add\n      mload(0x40)\n      dup1\n      0x80\n      add\n      0x40\n      mstore\n      swap1\n      dup2\n      0x00\n      dup3\n      add\n      dup1\n      sload\n      tag_22\n      swap1\n      tag_23\n      jump\t// in\n    tag_22:\n      dup1\n      0x1f\n      add\n      0x20\n      dup1\n      swap2\n      div\n      mul\n      0x20\n      add\n      mload(0x40)\n      swap1\n      dup2\n      add\n      0x40\n      mstore\n      dup1\n      swap3\n      swap2\n      swap1\n      dup2\n      dup2\n      mstore\n      0x20\n      add\n      dup3\n      dup1\n      sload\n      tag_24\n      swap1\n      tag_23\n      jump\t// in\n    tag_24:\n      dup1\n      iszero\n      tag_25\n      jumpi\n      dup1\n      0x1f\n      lt\n      tag_26\n      jumpi\n      0x0100\n      dup1\n      dup4\n      sload\n      div\n      mul\n      dup4\n      mstore\n      swap2\n      0x20\n      add\n      swap2\n      jump(tag_25)\n    tag_26:\n      dup3\n      add\n      swap2\n      swap1\n      0x00\n      mstore\n      keccak256(0x00, 0x20)\n      swap1\n    tag_27:\n      dup2\n      sload\n      dup2\n      mstore\n      swap1\n      0x01\n      add\n      swap1\n      0x20\n      add\n      dup1\n      dup4\n      gt\n      tag_27\n      jumpi\n      dup3\n      swap1\n      sub\n      0x1f\n      and\n      dup3\n      add\n      swap2\n    tag_25:\n      pop\n      pop\n      pop\n      pop\n      pop\n      dup2\n      mstore\n      0x20\n      add\n      0x01\n      dup3\n      add\n      dup1\n      sload\n      tag_28\n      swap1\n      tag_23\n      jump\t// in\n    tag_28:\n      dup1\n      0x1f\n      add\n      0x20\n      dup1\n      swap2\n      div\n      mul\n      0x20\n      add\n      mload(0x40)\n      swap1\n      dup2\n      add\n      0x40\n      mstore\n      dup1\n      swap3\n      swap2\n      swap1\n      dup2\n      dup2\n      mstore\n      0x20\n      add\n      dup3\n      dup1\n      sload\n      tag_29\n      swap1\n      tag_23\n      jump\t// in\n    tag_29:\n      dup1\n      iszero\n      tag_30\n      jumpi\n      dup1\n      0x1f\n      lt\n      tag_31\n      jumpi\n      0x0100\n      dup1\n      dup4\n      sload\n      div\n      mul\n      dup4\n      mstore\n      swap2\n      0x20\n      add\n      swap2\n      jump(tag_30)\n    tag_31:\n      dup3\n      add\n      swap2\n      swap1\n      0x00\n      mstore\n      keccak256(0x00, 0x20)\n      swap1\n    tag_32:\n      dup2\n      sload\n      dup2\n      mstore\n      swap1\n      0x01\n      add\n      swap1\n      0x20\n      add\n      dup1\n      dup4\n      gt\n      tag_32\n      jumpi\n      dup3\n      swap1\n      sub\n      0x1f\n      and\n      dup3\n      add\n      swap2\n    tag_30:\n      pop\n      pop\n      pop\n      pop\n      pop\n      dup2\n      mstore\n      0x20\n      add\n      0x02\n      dup3\n      add\n      sload\n      dup2\n      mstore\n      0x20\n      add\n      0x03\n      dup3\n      add\n      sload\n      dup2\n      mstore\n      pop\n      pop\n      dup2\n      mstore\n      0x20\n      add\n      swap1\n      0x01\n      add\n      swap1\n      jump(tag_19)\n    tag_20:\n      pop\n      pop\n      pop\n      pop\n      swap1\n      pop\n        /* \"contracts/1_Storage.sol\":753:848  function getStudents() public view returns(Student[] memory){... */\n      swap1\n      jump\t// out\n        /* \"#utility.yul\":7:82   */\n    tag_33:\n        /* \"#utility.yul\":40:46   */\n      0x00\n        /* \"#utility.yul\":73:75   */\n      0x40\n        /* \"#utility.yul\":67:76   */\n      mload\n        /* \"#utility.yul\":57:76   */\n      swap1\n      pop\n        /* \"#utility.yul\":7:82   */\n      swap1\n      jump\t// out\n        /* \"#utility.yul\":88:205   */\n    tag_34:\n        /* \"#utility.yul\":197:198   */\n      0x00\n        /* \"#utility.yul\":194:195   */\n      0x00\n        /* \"#utility.yul\":187:199   */\n      revert\n        /* \"#utility.yul\":211:328   */\n    tag_35:\n        /* \"#utility.yul\":320:321   */\n      0x00\n        /* \"#utility.yul\":317:318   */\n      0x00\n        /* \"#utility.yul\":310:322   */\n      revert\n        /* \"#utility.yul\":334:451   */\n    tag_36:\n        /* \"#utility.yul\":443:444   */\n      0x00\n        /* \"#utility.yul\":440:441   */\n      0x00\n        /* \"#utility.yul\":433:445   */\n      revert\n        /* \"#utility.yul\":457:574   */\n    tag_37:\n        /* \"#utility.yul\":566:567   */\n      0x00\n        /* \"#utility.yul\":563:564   */\n      0x00\n        /* \"#utility.yul\":556:568   */\n      revert\n        /* \"#utility.yul\":580:682   */\n    tag_38:\n        /* \"#utility.yul\":621:627   */\n      0x00\n        /* \"#utility.yul\":672:674   */\n      0x1f\n        /* \"#utility.yul\":668:675   */\n      not\n        /* \"#utility.yul\":663:665   */\n      0x1f\n        /* \"#utility.yul\":656:661   */\n      dup4\n        /* \"#utility.yul\":652:666   */\n      add\n        /* \"#utility.yul\":648:676   */\n      and\n        /* \"#utility.yul\":638:676   */\n      swap1\n      pop\n        /* \"#utility.yul\":580:682   */\n      swap2\n      swap1\n      pop\n      jump\t// out\n        /* \"#utility.yul\":688:868   */\n    tag_39:\n        /* \"#utility.yul\":736:813   */\n      0x4e487b7100000000000000000000000000000000000000000000000000000000\n        /* \"#utility.yul\":733:734   */\n      0x00\n        /* \"#utility.yul\":726:814   */\n      mstore\n        /* \"#utility.yul\":833:837   */\n      0x41\n        /* \"#utility.yul\":830:831   */\n      0x04\n        /* \"#utility.yul\":823:838   */\n      mstore\n        /* \"#utility.yul\":857:861   */\n      0x24\n        /* \"#utility.yul\":854:855   */\n      0x00\n        /* \"#utility.yul\":847:862   */\n      revert\n        /* \"#utility.yul\":874:1155   */\n    tag_40:\n        /* \"#utility.yul\":957:984   */\n      tag_86\n        /* \"#utility.yul\":979:983   */\n      dup3\n        /* \"#utility.yul\":957:984   */\n      tag_38\n      jump\t// in\n    tag_86:\n        /* \"#utility.yul\":949:955   */\n      dup2\n        /* \"#utility.yul\":945:985   */\n      add\n        /* \"#utility.yul\":1087:1093   */\n      dup2\n        /* \"#utility.yul\":1075:1085   */\n      dup2\n        /* \"#utility.yul\":1072:1094   */\n      lt\n        /* \"#utility.yul\":1051:1069   */\n      0xffffffffffffffff\n        /* \"#utility.yul\":1039:1049   */\n      dup3\n        /* \"#utility.yul\":1036:1070   */\n      gt\n        /* \"#utility.yul\":1033:1095   */\n      or\n        /* \"#utility.yul\":1030:1118   */\n      iszero\n      tag_87\n      jumpi\n        /* \"#utility.yul\":1098:1116   */\n      tag_88\n      tag_39\n      jump\t// in\n    tag_88:\n        /* \"#utility.yul\":1030:1118   */\n    tag_87:\n        /* \"#utility.yul\":1138:1148   */\n      dup1\n        /* \"#utility.yul\":1134:1136   */\n      0x40\n        /* \"#utility.yul\":1127:1149   */\n      mstore\n        /* \"#utility.yul\":917:1155   */\n      pop\n        /* \"#utility.yul\":874:1155   */\n      pop\n      pop\n      jump\t// out\n        /* \"#utility.yul\":1161:1290   */\n    tag_41:\n        /* \"#utility.yul\":1195:1201   */\n      0x00\n        /* \"#utility.yul\":1222:1242   */\n      tag_90\n      tag_33\n      jump\t// in\n    tag_90:\n        /* \"#utility.yul\":1212:1242   */\n      swap1\n      pop\n        /* \"#utility.yul\":1251:1284   */\n      tag_91\n        /* \"#utility.yul\":1279:1283   */\n      dup3\n        /* \"#utility.yul\":1271:1277   */\n      dup3\n        /* \"#utility.yul\":1251:1284   */\n      tag_40\n      jump\t// in\n    tag_91:\n        /* \"#utility.yul\":1161:1290   */\n      swap2\n      swap1\n      pop\n      jump\t// out\n        /* \"#utility.yul\":1296:1604   */\n    tag_42:\n        /* \"#utility.yul\":1358:1362   */\n      0x00\n        /* \"#utility.yul\":1448:1466   */\n      0xffffffffffffffff\n        /* \"#utility.yul\":1440:1446   */\n      dup3\n        /* \"#utility.yul\":1437:1467   */\n      gt\n        /* \"#utility.yul\":1434:1490   */\n      iszero\n      tag_93\n      jumpi\n        /* \"#utility.yul\":1470:1488   */\n      tag_94\n      tag_39\n      jump\t// in\n    tag_94:\n        /* \"#utility.yul\":1434:1490   */\n    tag_93:\n        /* \"#utility.yul\":1508:1537   */\n      tag_95\n        /* \"#utility.yul\":1530:1536   */\n      dup3\n        /* \"#utility.yul\":1508:1537   */\n      tag_38\n      jump\t// in\n    tag_95:\n        /* \"#utility.yul\":1500:1537   */\n      swap1\n      pop\n        /* \"#utility.yul\":1592:1596   */\n      0x20\n        /* \"#utility.yul\":1586:1590   */\n      dup2\n        /* \"#utility.yul\":1582:1597   */\n      add\n        /* \"#utility.yul\":1574:1597   */\n      swap1\n      pop\n        /* \"#utility.yul\":1296:1604   */\n      swap2\n      swap1\n      pop\n      jump\t// out\n        /* \"#utility.yul\":1610:1758   */\n    tag_43:\n        /* \"#utility.yul\":1708:1714   */\n      dup3\n        /* \"#utility.yul\":1703:1706   */\n      dup2\n        /* \"#utility.yul\":1698:1701   */\n      dup4\n        /* \"#utility.yul\":1685:1715   */\n      calldatacopy\n        /* \"#utility.yul\":1749:1750   */\n      0x00\n        /* \"#utility.yul\":1740:1746   */\n      dup4\n        /* \"#utility.yul\":1735:1738   */\n      dup4\n        /* \"#utility.yul\":1731:1747   */\n      add\n        /* \"#utility.yul\":1724:1751   */\n      mstore\n        /* \"#utility.yul\":1610:1758   */\n      pop\n      pop\n      pop\n      jump\t// out\n        /* \"#utility.yul\":1764:2189   */\n    tag_44:\n        /* \"#utility.yul\":1842:1847   */\n      0x00\n        /* \"#utility.yul\":1867:1933   */\n      tag_98\n        /* \"#utility.yul\":1883:1932   */\n      tag_99\n        /* \"#utility.yul\":1925:1931   */\n      dup5\n        /* \"#utility.yul\":1883:1932   */\n      tag_42\n      jump\t// in\n    tag_99:\n        /* \"#utility.yul\":1867:1933   */\n      tag_41\n      jump\t// in\n    tag_98:\n        /* \"#utility.yul\":1858:1933   */\n      swap1\n      pop\n        /* \"#utility.yul\":1956:1962   */\n      dup3\n        /* \"#utility.yul\":1949:1954   */\n      dup2\n        /* \"#utility.yul\":1942:1963   */\n      mstore\n        /* \"#utility.yul\":1994:1998   */\n      0x20\n        /* \"#utility.yul\":1987:1992   */\n      dup2\n        /* \"#utility.yul\":1983:1999   */\n      add\n        /* \"#utility.yul\":2032:2035   */\n      dup5\n        /* \"#utility.yul\":2023:2029   */\n      dup5\n        /* \"#utility.yul\":2018:2021   */\n      dup5\n        /* \"#utility.yul\":2014:2030   */\n      add\n        /* \"#utility.yul\":2011:2036   */\n      gt\n        /* \"#utility.yul\":2008:2120   */\n      iszero\n      tag_100\n      jumpi\n        /* \"#utility.yul\":2039:2118   */\n      tag_101\n      tag_37\n      jump\t// in\n    tag_101:\n        /* \"#utility.yul\":2008:2120   */\n    tag_100:\n        /* \"#utility.yul\":2129:2183   */\n      tag_102\n        /* \"#utility.yul\":2176:2182   */\n      dup5\n        /* \"#utility.yul\":2171:2174   */\n      dup3\n        /* \"#utility.yul\":2166:2169   */\n      dup6\n        /* \"#utility.yul\":2129:2183   */\n      tag_43\n      jump\t// in\n    tag_102:\n        /* \"#utility.yul\":1848:2189   */\n      pop\n        /* \"#utility.yul\":1764:2189   */\n      swap4\n      swap3\n      pop\n      pop\n      pop\n      jump\t// out\n        /* \"#utility.yul\":2209:2549   */\n    tag_45:\n        /* \"#utility.yul\":2265:2270   */\n      0x00\n        /* \"#utility.yul\":2314:2317   */\n      dup3\n        /* \"#utility.yul\":2307:2311   */\n      0x1f\n        /* \"#utility.yul\":2299:2305   */\n      dup4\n        /* \"#utility.yul\":2295:2312   */\n      add\n        /* \"#utility.yul\":2291:2318   */\n      slt\n        /* \"#utility.yul\":2281:2403   */\n      tag_104\n      jumpi\n        /* \"#utility.yul\":2322:2401   */\n      tag_105\n      tag_36\n      jump\t// in\n    tag_105:\n        /* \"#utility.yul\":2281:2403   */\n    tag_104:\n        /* \"#utility.yul\":2439:2445   */\n      dup2\n        /* \"#utility.yul\":2426:2446   */\n      calldataload\n        /* \"#utility.yul\":2464:2543   */\n      tag_106\n        /* \"#utility.yul\":2539:2542   */\n      dup5\n        /* \"#utility.yul\":2531:2537   */\n      dup3\n        /* \"#utility.yul\":2524:2528   */\n      0x20\n        /* \"#utility.yul\":2516:2522   */\n      dup7\n        /* \"#utility.yul\":2512:2529   */\n      add\n        /* \"#utility.yul\":2464:2543   */\n      tag_44\n      jump\t// in\n    tag_106:\n        /* \"#utility.yul\":2455:2543   */\n      swap2\n      pop\n        /* \"#utility.yul\":2271:2549   */\n      pop\n        /* \"#utility.yul\":2209:2549   */\n      swap3\n      swap2\n      pop\n      pop\n      jump\t// out\n        /* \"#utility.yul\":2555:2632   */\n    tag_46:\n        /* \"#utility.yul\":2592:2599   */\n      0x00\n        /* \"#utility.yul\":2621:2626   */\n      dup2\n        /* \"#utility.yul\":2610:2626   */\n      swap1\n      pop\n        /* \"#utility.yul\":2555:2632   */\n      swap2\n      swap1\n      pop\n      jump\t// out\n        /* \"#utility.yul\":2638:2760   */\n    tag_47:\n        /* \"#utility.yul\":2711:2735   */\n      tag_109\n        /* \"#utility.yul\":2729:2734   */\n      dup2\n        /* \"#utility.yul\":2711:2735   */\n      tag_46\n      jump\t// in\n    tag_109:\n        /* \"#utility.yul\":2704:2709   */\n      dup2\n        /* \"#utility.yul\":2701:2736   */\n      eq\n        /* \"#utility.yul\":2691:2754   */\n      tag_110\n      jumpi\n        /* \"#utility.yul\":2750:2751   */\n      0x00\n        /* \"#utility.yul\":2747:2748   */\n      0x00\n        /* \"#utility.yul\":2740:2752   */\n      revert\n        /* \"#utility.yul\":2691:2754   */\n    tag_110:\n        /* \"#utility.yul\":2638:2760   */\n      pop\n      jump\t// out\n        /* \"#utility.yul\":2766:2905   */\n    tag_48:\n        /* \"#utility.yul\":2812:2817   */\n      0x00\n        /* \"#utility.yul\":2850:2856   */\n      dup2\n        /* \"#utility.yul\":2837:2857   */\n      calldataload\n        /* \"#utility.yul\":2828:2857   */\n      swap1\n      pop\n        /* \"#utility.yul\":2866:2899   */\n      tag_112\n        /* \"#utility.yul\":2893:2898   */\n      dup2\n        /* \"#utility.yul\":2866:2899   */\n      tag_47\n      jump\t// in\n    tag_112:\n        /* \"#utility.yul\":2766:2905   */\n      swap3\n      swap2\n      pop\n      pop\n      jump\t// out\n        /* \"#utility.yul\":2911:4036   */\n    tag_7:\n        /* \"#utility.yul\":3017:3023   */\n      0x00\n        /* \"#utility.yul\":3025:3031   */\n      0x00\n        /* \"#utility.yul\":3033:3039   */\n      0x00\n        /* \"#utility.yul\":3041:3047   */\n      0x00\n        /* \"#utility.yul\":3090:3093   */\n      0x80\n        /* \"#utility.yul\":3078:3087   */\n      dup6\n        /* \"#utility.yul\":3069:3076   */\n      dup8\n        /* \"#utility.yul\":3065:3088   */\n      sub\n        /* \"#utility.yul\":3061:3094   */\n      slt\n        /* \"#utility.yul\":3058:3178   */\n      iszero\n      tag_114\n      jumpi\n        /* \"#utility.yul\":3097:3176   */\n      tag_115\n      tag_34\n      jump\t// in\n    tag_115:\n        /* \"#utility.yul\":3058:3178   */\n    tag_114:\n        /* \"#utility.yul\":3245:3246   */\n      0x00\n        /* \"#utility.yul\":3234:3243   */\n      dup6\n        /* \"#utility.yul\":3230:3247   */\n      add\n        /* \"#utility.yul\":3217:3248   */\n      calldataload\n        /* \"#utility.yul\":3275:3293   */\n      0xffffffffffffffff\n        /* \"#utility.yul\":3267:3273   */\n      dup2\n        /* \"#utility.yul\":3264:3294   */\n      gt\n        /* \"#utility.yul\":3261:3378   */\n      iszero\n      tag_116\n      jumpi\n        /* \"#utility.yul\":3297:3376   */\n      tag_117\n      tag_35\n      jump\t// in\n    tag_117:\n        /* \"#utility.yul\":3261:3378   */\n    tag_116:\n        /* \"#utility.yul\":3402:3465   */\n      tag_118\n        /* \"#utility.yul\":3457:3464   */\n      dup8\n        /* \"#utility.yul\":3448:3454   */\n      dup3\n        /* \"#utility.yul\":3437:3446   */\n      dup9\n        /* \"#utility.yul\":3433:3455   */\n      add\n        /* \"#utility.yul\":3402:3465   */\n      tag_45\n      jump\t// in\n    tag_118:\n        /* \"#utility.yul\":3392:3465   */\n      swap5\n      pop\n        /* \"#utility.yul\":3188:3475   */\n      pop\n        /* \"#utility.yul\":3542:3544   */\n      0x20\n        /* \"#utility.yul\":3531:3540   */\n      dup6\n        /* \"#utility.yul\":3527:3545   */\n      add\n        /* \"#utility.yul\":3514:3546   */\n      calldataload\n        /* \"#utility.yul\":3573:3591   */\n      0xffffffffffffffff\n        /* \"#utility.yul\":3565:3571   */\n      dup2\n        /* \"#utility.yul\":3562:3592   */\n      gt\n        /* \"#utility.yul\":3559:3676   */\n      iszero\n      tag_119\n      jumpi\n        /* \"#utility.yul\":3595:3674   */\n      tag_120\n      tag_35\n      jump\t// in\n    tag_120:\n        /* \"#utility.yul\":3559:3676   */\n    tag_119:\n        /* \"#utility.yul\":3700:3763   */\n      tag_121\n        /* \"#utility.yul\":3755:3762   */\n      dup8\n        /* \"#utility.yul\":3746:3752   */\n      dup3\n        /* \"#utility.yul\":3735:3744   */\n      dup9\n        /* \"#utility.yul\":3731:3753   */\n      add\n        /* \"#utility.yul\":3700:3763   */\n      tag_45\n      jump\t// in\n    tag_121:\n        /* \"#utility.yul\":3690:3763   */\n      swap4\n      pop\n        /* \"#utility.yul\":3485:3773   */\n      pop\n        /* \"#utility.yul\":3812:3814   */\n      0x40\n        /* \"#utility.yul\":3838:3891   */\n      tag_122\n        /* \"#utility.yul\":3883:3890   */\n      dup8\n        /* \"#utility.yul\":3874:3880   */\n      dup3\n        /* \"#utility.yul\":3863:3872   */\n      dup9\n        /* \"#utility.yul\":3859:3881   */\n      add\n        /* \"#utility.yul\":3838:3891   */\n      tag_48\n      jump\t// in\n    tag_122:\n        /* \"#utility.yul\":3828:3891   */\n      swap3\n      pop\n        /* \"#utility.yul\":3783:3901   */\n      pop\n        /* \"#utility.yul\":3940:3942   */\n      0x60\n        /* \"#utility.yul\":3966:4019   */\n      tag_123\n        /* \"#utility.yul\":4011:4018   */\n      dup8\n        /* \"#utility.yul\":4002:4008   */\n      dup3\n        /* \"#utility.yul\":3991:4000   */\n      dup9\n        /* \"#utility.yul\":3987:4009   */\n      add\n        /* \"#utility.yul\":3966:4019   */\n      tag_48\n      jump\t// in\n    tag_123:\n        /* \"#utility.yul\":3956:4019   */\n      swap2\n      pop\n        /* \"#utility.yul\":3911:4029   */\n      pop\n        /* \"#utility.yul\":2911:4036   */\n      swap3\n      swap6\n      swap2\n      swap5\n      pop\n      swap3\n      pop\n      jump\t// out\n        /* \"#utility.yul\":4042:4179   */\n    tag_49:\n        /* \"#utility.yul\":4132:4138   */\n      0x00\n        /* \"#utility.yul\":4166:4171   */\n      dup2\n        /* \"#utility.yul\":4160:4172   */\n      mload\n        /* \"#utility.yul\":4150:4172   */\n      swap1\n      pop\n        /* \"#utility.yul\":4042:4179   */\n      swap2\n      swap1\n      pop\n      jump\t// out\n        /* \"#utility.yul\":4185:4392   */\n    tag_50:\n        /* \"#utility.yul\":4307:4318   */\n      0x00\n        /* \"#utility.yul\":4341:4347   */\n      dup3\n        /* \"#utility.yul\":4336:4339   */\n      dup3\n        /* \"#utility.yul\":4329:4348   */\n      mstore\n        /* \"#utility.yul\":4381:4385   */\n      0x20\n        /* \"#utility.yul\":4376:4379   */\n      dup3\n        /* \"#utility.yul\":4372:4386   */\n      add\n        /* \"#utility.yul\":4357:4386   */\n      swap1\n      pop\n        /* \"#utility.yul\":4185:4392   */\n      swap3\n      swap2\n      pop\n      pop\n      jump\t// out\n        /* \"#utility.yul\":4398:4553   */\n    tag_51:\n        /* \"#utility.yul\":4488:4492   */\n      0x00\n        /* \"#utility.yul\":4511:4514   */\n      dup2\n        /* \"#utility.yul\":4503:4514   */\n      swap1\n      pop\n        /* \"#utility.yul\":4541:4545   */\n      0x20\n        /* \"#utility.yul\":4536:4539   */\n      dup3\n        /* \"#utility.yul\":4532:4546   */\n      add\n        /* \"#utility.yul\":4524:4546   */\n      swap1\n      pop\n        /* \"#utility.yul\":4398:4553   */\n      swap2\n      swap1\n      pop\n      jump\t// out\n        /* \"#utility.yul\":4559:4658   */\n    tag_52:\n        /* \"#utility.yul\":4611:4617   */\n      0x00\n        /* \"#utility.yul\":4645:4650   */\n      dup2\n        /* \"#utility.yul\":4639:4651   */\n      mload\n        /* \"#utility.yul\":4629:4651   */\n      swap1\n      pop\n        /* \"#utility.yul\":4559:4658   */\n      swap2\n      swap1\n      pop\n      jump\t// out\n        /* \"#utility.yul\":4664:4823   */\n    tag_53:\n        /* \"#utility.yul\":4738:4749   */\n      0x00\n        /* \"#utility.yul\":4772:4778   */\n      dup3\n        /* \"#utility.yul\":4767:4770   */\n      dup3\n        /* \"#utility.yul\":4760:4779   */\n      mstore\n        /* \"#utility.yul\":4812:4816   */\n      0x20\n        /* \"#utility.yul\":4807:4810   */\n      dup3\n        /* \"#utility.yul\":4803:4817   */\n      add\n        /* \"#utility.yul\":4788:4817   */\n      swap1\n      pop\n        /* \"#utility.yul\":4664:4823   */\n      swap3\n      swap2\n      pop\n      pop\n      jump\t// out\n        /* \"#utility.yul\":4829:4968   */\n    tag_54:\n        /* \"#utility.yul\":4918:4924   */\n      dup3\n        /* \"#utility.yul\":4913:4916   */\n      dup2\n        /* \"#utility.yul\":4908:4911   */\n      dup4\n        /* \"#utility.yul\":4902:4925   */\n      mcopy\n        /* \"#utility.yul\":4959:4960   */\n      0x00\n        /* \"#utility.yul\":4950:4956   */\n      dup4\n        /* \"#utility.yul\":4945:4948   */\n      dup4\n        /* \"#utility.yul\":4941:4957   */\n      add\n        /* \"#utility.yul\":4934:4961   */\n      mstore\n        /* \"#utility.yul\":4829:4968   */\n      pop\n      pop\n      pop\n      jump\t// out\n        /* \"#utility.yul\":4974:5331   */\n    tag_55:\n        /* \"#utility.yul\":5052:5055   */\n      0x00\n        /* \"#utility.yul\":5080:5119   */\n      tag_131\n        /* \"#utility.yul\":5113:5118   */\n      dup3\n        /* \"#utility.yul\":5080:5119   */\n      tag_52\n      jump\t// in\n    tag_131:\n        /* \"#utility.yul\":5135:5196   */\n      tag_132\n        /* \"#utility.yul\":5189:5195   */\n      dup2\n        /* \"#utility.yul\":5184:5187   */\n      dup6\n        /* \"#utility.yul\":5135:5196   */\n      tag_53\n      jump\t// in\n    tag_132:\n        /* \"#utility.yul\":5128:5196   */\n      swap4\n      pop\n        /* \"#utility.yul\":5205:5270   */\n      tag_133\n        /* \"#utility.yul\":5263:5269   */\n      dup2\n        /* \"#utility.yul\":5258:5261   */\n      dup6\n        /* \"#utility.yul\":5251:5255   */\n      0x20\n        /* \"#utility.yul\":5244:5249   */\n      dup7\n        /* \"#utility.yul\":5240:5256   */\n      add\n        /* \"#utility.yul\":5205:5270   */\n      tag_54\n      jump\t// in\n    tag_133:\n        /* \"#utility.yul\":5295:5324   */\n      tag_134\n        /* \"#utility.yul\":5317:5323   */\n      dup2\n        /* \"#utility.yul\":5295:5324   */\n      tag_38\n      jump\t// in\n    tag_134:\n        /* \"#utility.yul\":5290:5293   */\n      dup5\n        /* \"#utility.yul\":5286:5325   */\n      add\n        /* \"#utility.yul\":5279:5325   */\n      swap2\n      pop\n        /* \"#utility.yul\":5056:5331   */\n      pop\n        /* \"#utility.yul\":4974:5331   */\n      swap3\n      swap2\n      pop\n      pop\n      jump\t// out\n        /* \"#utility.yul\":5337:5445   */\n    tag_56:\n        /* \"#utility.yul\":5414:5438   */\n      tag_136\n        /* \"#utility.yul\":5432:5437   */\n      dup2\n        /* \"#utility.yul\":5414:5438   */\n      tag_46\n      jump\t// in\n    tag_136:\n        /* \"#utility.yul\":5409:5412   */\n      dup3\n        /* \"#utility.yul\":5402:5439   */\n      mstore\n        /* \"#utility.yul\":5337:5445   */\n      pop\n      pop\n      jump\t// out\n        /* \"#utility.yul\":5507:6537   */\n    tag_57:\n        /* \"#utility.yul\":5612:5615   */\n      0x00\n        /* \"#utility.yul\":5648:5652   */\n      0x80\n        /* \"#utility.yul\":5643:5646   */\n      dup4\n        /* \"#utility.yul\":5639:5653   */\n      add\n        /* \"#utility.yul\":5734:5738   */\n      0x00\n        /* \"#utility.yul\":5727:5732   */\n      dup4\n        /* \"#utility.yul\":5723:5739   */\n      add\n        /* \"#utility.yul\":5717:5740   */\n      mload\n        /* \"#utility.yul\":5787:5790   */\n      dup5\n        /* \"#utility.yul\":5781:5785   */\n      dup3\n        /* \"#utility.yul\":5777:5791   */\n      sub\n        /* \"#utility.yul\":5770:5774   */\n      0x00\n        /* \"#utility.yul\":5765:5768   */\n      dup7\n        /* \"#utility.yul\":5761:5775   */\n      add\n        /* \"#utility.yul\":5754:5792   */\n      mstore\n        /* \"#utility.yul\":5813:5886   */\n      tag_138\n        /* \"#utility.yul\":5881:5885   */\n      dup3\n        /* \"#utility.yul\":5867:5879   */\n      dup3\n        /* \"#utility.yul\":5813:5886   */\n      tag_55\n      jump\t// in\n    tag_138:\n        /* \"#utility.yul\":5805:5886   */\n      swap2\n      pop\n        /* \"#utility.yul\":5663:5897   */\n      pop\n        /* \"#utility.yul\":5987:5991   */\n      0x20\n        /* \"#utility.yul\":5980:5985   */\n      dup4\n        /* \"#utility.yul\":5976:5992   */\n      add\n        /* \"#utility.yul\":5970:5993   */\n      mload\n        /* \"#utility.yul\":6040:6043   */\n      dup5\n        /* \"#utility.yul\":6034:6038   */\n      dup3\n        /* \"#utility.yul\":6030:6044   */\n      sub\n        /* \"#utility.yul\":6023:6027   */\n      0x20\n        /* \"#utility.yul\":6018:6021   */\n      dup7\n        /* \"#utility.yul\":6014:6028   */\n      add\n        /* \"#utility.yul\":6007:6045   */\n      mstore\n        /* \"#utility.yul\":6066:6139   */\n      tag_139\n        /* \"#utility.yul\":6134:6138   */\n      dup3\n        /* \"#utility.yul\":6120:6132   */\n      dup3\n        /* \"#utility.yul\":6066:6139   */\n      tag_55\n      jump\t// in\n    tag_139:\n        /* \"#utility.yul\":6058:6139   */\n      swap2\n      pop\n        /* \"#utility.yul\":5907:6150   */\n      pop\n        /* \"#utility.yul\":6237:6241   */\n      0x40\n        /* \"#utility.yul\":6230:6235   */\n      dup4\n        /* \"#utility.yul\":6226:6242   */\n      add\n        /* \"#utility.yul\":6220:6243   */\n      mload\n        /* \"#utility.yul\":6256:6319   */\n      tag_140\n        /* \"#utility.yul\":6313:6317   */\n      0x40\n        /* \"#utility.yul\":6308:6311   */\n      dup7\n        /* \"#utility.yul\":6304:6318   */\n      add\n        /* \"#utility.yul\":6290:6302   */\n      dup3\n        /* \"#utility.yul\":6256:6319   */\n      tag_56\n      jump\t// in\n    tag_140:\n        /* \"#utility.yul\":6160:6329   */\n      pop\n        /* \"#utility.yul\":6418:6422   */\n      0x60\n        /* \"#utility.yul\":6411:6416   */\n      dup4\n        /* \"#utility.yul\":6407:6423   */\n      add\n        /* \"#utility.yul\":6401:6424   */\n      mload\n        /* \"#utility.yul\":6437:6500   */\n      tag_141\n        /* \"#utility.yul\":6494:6498   */\n      0x60\n        /* \"#utility.yul\":6489:6492   */\n      dup7\n        /* \"#utility.yul\":6485:6499   */\n      add\n        /* \"#utility.yul\":6471:6483   */\n      dup3\n        /* \"#utility.yul\":6437:6500   */\n      tag_56\n      jump\t// in\n    tag_141:\n        /* \"#utility.yul\":6339:6510   */\n      pop\n        /* \"#utility.yul\":6527:6531   */\n      dup1\n        /* \"#utility.yul\":6520:6531   */\n      swap2\n      pop\n        /* \"#utility.yul\":5617:6537   */\n      pop\n        /* \"#utility.yul\":5507:6537   */\n      swap3\n      swap2\n      pop\n      pop\n      jump\t// out\n        /* \"#utility.yul\":6543:6791   */\n    tag_58:\n        /* \"#utility.yul\":6658:6668   */\n      0x00\n        /* \"#utility.yul\":6693:6785   */\n      tag_143\n        /* \"#utility.yul\":6781:6784   */\n      dup4\n        /* \"#utility.yul\":6773:6779   */\n      dup4\n        /* \"#utility.yul\":6693:6785   */\n      tag_57\n      jump\t// in\n    tag_143:\n        /* \"#utility.yul\":6679:6785   */\n      swap1\n      pop\n        /* \"#utility.yul\":6543:6791   */\n      swap3\n      swap2\n      pop\n      pop\n      jump\t// out\n        /* \"#utility.yul\":6797:6933   */\n    tag_59:\n        /* \"#utility.yul\":6890:6894   */\n      0x00\n        /* \"#utility.yul\":6922:6926   */\n      0x20\n        /* \"#utility.yul\":6917:6920   */\n      dup3\n        /* \"#utility.yul\":6913:6927   */\n      add\n        /* \"#utility.yul\":6905:6927   */\n      swap1\n      pop\n        /* \"#utility.yul\":6797:6933   */\n      swap2\n      swap1\n      pop\n      jump\t// out\n        /* \"#utility.yul\":6999:8094   */\n    tag_60:\n        /* \"#utility.yul\":7164:7167   */\n      0x00\n        /* \"#utility.yul\":7193:7270   */\n      tag_146\n        /* \"#utility.yul\":7264:7269   */\n      dup3\n        /* \"#utility.yul\":7193:7270   */\n      tag_49\n      jump\t// in\n    tag_146:\n        /* \"#utility.yul\":7286:7395   */\n      tag_147\n        /* \"#utility.yul\":7388:7394   */\n      dup2\n        /* \"#utility.yul\":7383:7386   */\n      dup6\n        /* \"#utility.yul\":7286:7395   */\n      tag_50\n      jump\t// in\n    tag_147:\n        /* \"#utility.yul\":7279:7395   */\n      swap4\n      pop\n        /* \"#utility.yul\":7421:7424   */\n      dup4\n        /* \"#utility.yul\":7466:7470   */\n      0x20\n        /* \"#utility.yul\":7458:7464   */\n      dup3\n        /* \"#utility.yul\":7454:7471   */\n      mul\n        /* \"#utility.yul\":7449:7452   */\n      dup6\n        /* \"#utility.yul\":7445:7472   */\n      add\n        /* \"#utility.yul\":7496:7575   */\n      tag_148\n        /* \"#utility.yul\":7569:7574   */\n      dup6\n        /* \"#utility.yul\":7496:7575   */\n      tag_51\n      jump\t// in\n    tag_148:\n        /* \"#utility.yul\":7598:7605   */\n      dup1\n        /* \"#utility.yul\":7629:7630   */\n      0x00\n        /* \"#utility.yul\":7614:8049   */\n    tag_149:\n        /* \"#utility.yul\":7639:7645   */\n      dup6\n        /* \"#utility.yul\":7636:7637   */\n      dup2\n        /* \"#utility.yul\":7633:7646   */\n      lt\n        /* \"#utility.yul\":7614:8049   */\n      iszero\n      tag_151\n      jumpi\n        /* \"#utility.yul\":7710:7719   */\n      dup5\n        /* \"#utility.yul\":7704:7708   */\n      dup5\n        /* \"#utility.yul\":7700:7720   */\n      sub\n        /* \"#utility.yul\":7695:7698   */\n      dup10\n        /* \"#utility.yul\":7688:7721   */\n      mstore\n        /* \"#utility.yul\":7761:7767   */\n      dup2\n        /* \"#utility.yul\":7755:7768   */\n      mload\n        /* \"#utility.yul\":7789:7899   */\n      tag_152\n        /* \"#utility.yul\":7894:7898   */\n      dup6\n        /* \"#utility.yul\":7879:7892   */\n      dup3\n        /* \"#utility.yul\":7789:7899   */\n      tag_58\n      jump\t// in\n    tag_152:\n        /* \"#utility.yul\":7781:7899   */\n      swap5\n      pop\n        /* \"#utility.yul\":7922:8005   */\n      tag_153\n        /* \"#utility.yul\":7998:8004   */\n      dup4\n        /* \"#utility.yul\":7922:8005   */\n      tag_59\n      jump\t// in\n    tag_153:\n        /* \"#utility.yul\":7912:8005   */\n      swap3\n      pop\n        /* \"#utility.yul\":8034:8038   */\n      0x20\n        /* \"#utility.yul\":8029:8032   */\n      dup11\n        /* \"#utility.yul\":8025:8039   */\n      add\n        /* \"#utility.yul\":8018:8039   */\n      swap10\n      pop\n        /* \"#utility.yul\":7674:8049   */\n      pop\n        /* \"#utility.yul\":7661:7662   */\n      0x01\n        /* \"#utility.yul\":7658:7659   */\n      dup2\n        /* \"#utility.yul\":7654:7663   */\n      add\n        /* \"#utility.yul\":7649:7663   */\n      swap1\n      pop\n        /* \"#utility.yul\":7614:8049   */\n      jump(tag_149)\n    tag_151:\n        /* \"#utility.yul\":7618:7632   */\n      pop\n        /* \"#utility.yul\":8065:8069   */\n      dup3\n        /* \"#utility.yul\":8058:8069   */\n      swap8\n      pop\n        /* \"#utility.yul\":8085:8088   */\n      dup8\n        /* \"#utility.yul\":8078:8088   */\n      swap6\n      pop\n        /* \"#utility.yul\":7169:8094   */\n      pop\n      pop\n      pop\n      pop\n      pop\n        /* \"#utility.yul\":6999:8094   */\n      swap3\n      swap2\n      pop\n      pop\n      jump\t// out\n        /* \"#utility.yul\":8100:8565   */\n    tag_12:\n        /* \"#utility.yul\":8289:8293   */\n      0x00\n        /* \"#utility.yul\":8327:8329   */\n      0x20\n        /* \"#utility.yul\":8316:8325   */\n      dup3\n        /* \"#utility.yul\":8312:8330   */\n      add\n        /* \"#utility.yul\":8304:8330   */\n      swap1\n      pop\n        /* \"#utility.yul\":8376:8385   */\n      dup2\n        /* \"#utility.yul\":8370:8374   */\n      dup2\n        /* \"#utility.yul\":8366:8386   */\n      sub\n        /* \"#utility.yul\":8362:8363   */\n      0x00\n        /* \"#utility.yul\":8351:8360   */\n      dup4\n        /* \"#utility.yul\":8347:8364   */\n      add\n        /* \"#utility.yul\":8340:8387   */\n      mstore\n        /* \"#utility.yul\":8404:8558   */\n      tag_155\n        /* \"#utility.yul\":8553:8557   */\n      dup2\n        /* \"#utility.yul\":8544:8550   */\n      dup5\n        /* \"#utility.yul\":8404:8558   */\n      tag_60\n      jump\t// in\n    tag_155:\n        /* \"#utility.yul\":8396:8558   */\n      swap1\n      pop\n        /* \"#utility.yul\":8100:8565   */\n      swap3\n      swap2\n      pop\n      pop\n      jump\t// out\n        /* \"#utility.yul\":8571:8751   */\n    tag_61:\n        /* \"#utility.yul\":8619:8696   */\n      0x4e487b7100000000000000000000000000000000000000000000000000000000\n        /* \"#utility.yul\":8616:8617   */\n      0x00\n        /* \"#utility.yul\":8609:8697   */\n      mstore\n        /* \"#utility.yul\":8716:8720   */\n      0x22\n        /* \"#utility.yul\":8713:8714   */\n      0x04\n        /* \"#utility.yul\":8706:8721   */\n      mstore\n        /* \"#utility.yul\":8740:8744   */\n      0x24\n        /* \"#utility.yul\":8737:8738   */\n      0x00\n        /* \"#utility.yul\":8730:8745   */\n      revert\n        /* \"#utility.yul\":8757:9077   */\n    tag_23:\n        /* \"#utility.yul\":8801:8807   */\n      0x00\n        /* \"#utility.yul\":8838:8839   */\n      0x02\n        /* \"#utility.yul\":8832:8836   */\n      dup3\n        /* \"#utility.yul\":8828:8840   */\n      div\n        /* \"#utility.yul\":8818:8840   */\n      swap1\n      pop\n        /* \"#utility.yul\":8885:8886   */\n      0x01\n        /* \"#utility.yul\":8879:8883   */\n      dup3\n        /* \"#utility.yul\":8875:8887   */\n      and\n        /* \"#utility.yul\":8906:8924   */\n      dup1\n        /* \"#utility.yul\":8896:8977   */\n      tag_158\n      jumpi\n        /* \"#utility.yul\":8962:8966   */\n      0x7f\n        /* \"#utility.yul\":8954:8960   */\n      dup3\n        /* \"#utility.yul\":8950:8967   */\n      and\n        /* \"#utility.yul\":8940:8967   */\n      swap2\n      pop\n        /* \"#utility.yul\":8896:8977   */\n    tag_158:\n        /* \"#utility.yul\":9024:9026   */\n      0x20\n        /* \"#utility.yul\":9016:9022   */\n      dup3\n        /* \"#utility.yul\":9013:9027   */\n      lt\n        /* \"#utility.yul\":8993:9011   */\n      dup2\n        /* \"#utility.yul\":8990:9028   */\n      sub\n        /* \"#utility.yul\":8987:9071   */\n      tag_159\n      jumpi\n        /* \"#utility.yul\":9043:9061   */\n      tag_160\n      tag_61\n      jump\t// in\n    tag_160:\n        /* \"#utility.yul\":8987:9071   */\n    tag_159:\n        /* \"#utility.yul\":8808:9077   */\n      pop\n        /* \"#utility.yul\":8757:9077   */\n      swap2\n      swap1\n      pop\n      jump\t// out\n        /* \"#utility.yul\":9083:9224   */\n    tag_62:\n        /* \"#utility.yul\":9132:9136   */\n      0x00\n        /* \"#utility.yul\":9155:9158   */\n      dup2\n        /* \"#utility.yul\":9147:9158   */\n      swap1\n      pop\n        /* \"#utility.yul\":9178:9181   */\n      dup2\n        /* \"#utility.yul\":9175:9176   */\n      0x00\n        /* \"#utility.yul\":9168:9182   */\n      mstore\n        /* \"#utility.yul\":9212:9216   */\n      0x20\n        /* \"#utility.yul\":9209:9210   */\n      0x00\n        /* \"#utility.yul\":9199:9217   */\n      keccak256\n        /* \"#utility.yul\":9191:9217   */\n      swap1\n      pop\n        /* \"#utility.yul\":9083:9224   */\n      swap2\n      swap1\n      pop\n      jump\t// out\n        /* \"#utility.yul\":9230:9323   */\n    tag_63:\n        /* \"#utility.yul\":9267:9273   */\n      0x00\n        /* \"#utility.yul\":9314:9316   */\n      0x20\n        /* \"#utility.yul\":9309:9311   */\n      0x1f\n        /* \"#utility.yul\":9302:9307   */\n      dup4\n        /* \"#utility.yul\":9298:9312   */\n      add\n        /* \"#utility.yul\":9294:9317   */\n      div\n        /* \"#utility.yul\":9284:9317   */\n      swap1\n      pop\n        /* \"#utility.yul\":9230:9323   */\n      swap2\n      swap1\n      pop\n      jump\t// out\n        /* \"#utility.yul\":9329:9436   */\n    tag_64:\n        /* \"#utility.yul\":9373:9381   */\n      0x00\n        /* \"#utility.yul\":9423:9428   */\n      dup3\n        /* \"#utility.yul\":9417:9421   */\n      dup3\n        /* \"#utility.yul\":9413:9429   */\n      shl\n        /* \"#utility.yul\":9392:9429   */\n      swap1\n      pop\n        /* \"#utility.yul\":9329:9436   */\n      swap3\n      swap2\n      pop\n      pop\n      jump\t// out\n        /* \"#utility.yul\":9442:9835   */\n    tag_65:\n        /* \"#utility.yul\":9511:9517   */\n      0x00\n        /* \"#utility.yul\":9561:9562   */\n      0x08\n        /* \"#utility.yul\":9549:9559   */\n      dup4\n        /* \"#utility.yul\":9545:9563   */\n      mul\n        /* \"#utility.yul\":9584:9681   */\n      tag_165\n        /* \"#utility.yul\":9614:9680   */\n      0xffffffffffffffffffffffffffffffffffffffffffffffffffffffffffffffff\n        /* \"#utility.yul\":9603:9612   */\n      dup3\n        /* \"#utility.yul\":9584:9681   */\n      tag_64\n      jump\t// in\n    tag_165:\n        /* \"#utility.yul\":9702:9741   */\n      tag_166\n        /* \"#utility.yul\":9732:9740   */\n      dup7\n        /* \"#utility.yul\":9721:9730   */\n      dup4\n        /* \"#utility.yul\":9702:9741   */\n      tag_64\n      jump\t// in\n    tag_166:\n        /* \"#utility.yul\":9690:9741   */\n      swap6\n      pop\n        /* \"#utility.yul\":9774:9778   */\n      dup1\n        /* \"#utility.yul\":9770:9779   */\n      not\n        /* \"#utility.yul\":9763:9768   */\n      dup5\n        /* \"#utility.yul\":9759:9780   */\n      and\n        /* \"#utility.yul\":9750:9780   */\n      swap4\n      pop\n        /* \"#utility.yul\":9823:9827   */\n      dup1\n        /* \"#utility.yul\":9813:9821   */\n      dup7\n        /* \"#utility.yul\":9809:9828   */\n      and\n        /* \"#utility.yul\":9802:9807   */\n      dup5\n        /* \"#utility.yul\":9799:9829   */\n      or\n        /* \"#utility.yul\":9789:9829   */\n      swap3\n      pop\n        /* \"#utility.yul\":9518:9835   */\n      pop\n      pop\n        /* \"#utility.yul\":9442:9835   */\n      swap4\n      swap3\n      pop\n      pop\n      pop\n      jump\t// out\n        /* \"#utility.yul\":9841:9901   */\n    tag_66:\n        /* \"#utility.yul\":9869:9872   */\n      0x00\n        /* \"#utility.yul\":9890:9895   */\n      dup2\n        /* \"#utility.yul\":9883:9895   */\n      swap1\n      pop\n        /* \"#utility.yul\":9841:9901   */\n      swap2\n      swap1\n      pop\n      jump\t// out\n        /* \"#utility.yul\":9907:10049   */\n    tag_67:\n        /* \"#utility.yul\":9957:9966   */\n      0x00\n        /* \"#utility.yul\":9990:10043   */\n      tag_169\n        /* \"#utility.yul\":10008:10042   */\n      tag_170\n        /* \"#utility.yul\":10017:10041   */\n      tag_171\n        /* \"#utility.yul\":10035:10040   */\n      dup5\n        /* \"#utility.yul\":10017:10041   */\n      tag_46\n      jump\t// in\n    tag_171:\n        /* \"#utility.yul\":10008:10042   */\n      tag_66\n      jump\t// in\n    tag_170:\n        /* \"#utility.yul\":9990:10043   */\n      tag_46\n      jump\t// in\n    tag_169:\n        /* \"#utility.yul\":9977:10043   */\n      swap1\n      pop\n        /* \"#utility.yul\":9907:10049   */\n      swap2\n      swap1\n      pop\n      jump\t// out\n        /* \"#utility.yul\":10055:10130   */\n    tag_68:\n        /* \"#utility.yul\":10098:10101   */\n      0x00\n        /* \"#utility.yul\":10119:10124   */\n      dup2\n        /* \"#utility.yul\":10112:10124   */\n      swap1\n      pop\n        /* \"#utility.yul\":10055:10130   */\n      swap2\n      swap1\n      pop\n      jump\t// out\n        /* \"#utility.yul\":10136:10405   */\n    tag_69:\n        /* \"#utility.yul\":10246:10285   */\n      tag_174\n        /* \"#utility.yul\":10277:10284   */\n      dup4\n        /* \"#utility.yul\":10246:10285   */\n      tag_67\n      jump\t// in\n    tag_174:\n        /* \"#utility.yul\":10307:10398   */\n      tag_175\n        /* \"#utility.yul\":10356:10397   */\n      tag_176\n        /* \"#utility.yul\":10380:10396   */\n      dup3\n        /* \"#utility.yul\":10356:10397   */\n      tag_68\n      jump\t// in\n    tag_176:\n        /* \"#utility.yul\":10348:10354   */\n      dup5\n        /* \"#utility.yul\":10341:10345   */\n      dup5\n        /* \"#utility.yul\":10335:10346   */\n      sload\n        /* \"#utility.yul\":10307:10398   */\n      tag_65\n      jump\t// in\n    tag_175:\n        /* \"#utility.yul\":10301:10305   */\n      dup3\n        /* \"#utility.yul\":10294:10399   */\n      sstore\n        /* \"#utility.yul\":10212:10405   */\n      pop\n        /* \"#utility.yul\":10136:10405   */\n      pop\n      pop\n      pop\n      jump\t// out\n        /* \"#utility.yul\":10411:10484   */\n    tag_70:\n        /* \"#utility.yul\":10456:10459   */\n      0x00\n        /* \"#utility.yul\":10477:10478   */\n      0x00\n        /* \"#utility.yul\":10470:10478   */\n      swap1\n      pop\n        /* \"#utility.yul\":10411:10484   */\n      swap1\n      jump\t// out\n        /* \"#utility.yul\":10490:10679   */\n    tag_71:\n        /* \"#utility.yul\":10567:10599   */\n      tag_179\n      tag_70\n      jump\t// in\n    tag_179:\n        /* \"#utility.yul\":10608:10673   */\n      tag_180\n        /* \"#utility.yul\":10666:10672   */\n      dup2\n        /* \"#utility.yul\":10658:10664   */\n      dup5\n        /* \"#utility.yul\":10652:10656   */\n      dup5\n        /* \"#utility.yul\":10608:10673   */\n      tag_69\n      jump\t// in\n    tag_180:\n        /* \"#utility.yul\":10543:10679   */\n      pop\n        /* \"#utility.yul\":10490:10679   */\n      pop\n      pop\n      jump\t// out\n        /* \"#utility.yul\":10685:10871   */\n    tag_72:\n        /* \"#utility.yul\":10745:10865   */\n    tag_182:\n        /* \"#utility.yul\":10762:10765   */\n      dup2\n        /* \"#utility.yul\":10755:10760   */\n      dup2\n        /* \"#utility.yul\":10752:10766   */\n      lt\n        /* \"#utility.yul\":10745:10865   */\n      iszero\n      tag_184\n      jumpi\n        /* \"#utility.yul\":10816:10855   */\n      tag_185\n        /* \"#utility.yul\":10853:10854   */\n      0x00\n        /* \"#utility.yul\":10846:10851   */\n      dup3\n        /* \"#utility.yul\":10816:10855   */\n      tag_71\n      jump\t// in\n    tag_185:\n        /* \"#utility.yul\":10789:10790   */\n      0x01\n        /* \"#utility.yul\":10782:10787   */\n      dup2\n        /* \"#utility.yul\":10778:10791   */\n      add\n        /* \"#utility.yul\":10769:10791   */\n      swap1\n      pop\n        /* \"#utility.yul\":10745:10865   */\n      jump(tag_182)\n    tag_184:\n        /* \"#utility.yul\":10685:10871   */\n      pop\n      pop\n      jump\t// out\n        /* \"#utility.yul\":10877:11420   */\n    tag_73:\n        /* \"#utility.yul\":10978:10980   */\n      0x1f\n        /* \"#utility.yul\":10973:10976   */\n      dup3\n        /* \"#utility.yul\":10970:10981   */\n      gt\n        /* \"#utility.yul\":10967:11413   */\n      iszero\n      tag_187\n      jumpi\n        /* \"#utility.yul\":11012:11050   */\n      tag_188\n        /* \"#utility.yul\":11044:11049   */\n      dup2\n        /* \"#utility.yul\":11012:11050   */\n      tag_62\n      jump\t// in\n    tag_188:\n        /* \"#utility.yul\":11096:11125   */\n      tag_189\n        /* \"#utility.yul\":11114:11124   */\n      dup5\n        /* \"#utility.yul\":11096:11125   */\n      tag_63\n      jump\t// in\n    tag_189:\n        /* \"#utility.yul\":11086:11094   */\n      dup2\n        /* \"#utility.yul\":11082:11126   */\n      add\n        /* \"#utility.yul\":11279:11281   */\n      0x20\n        /* \"#utility.yul\":11267:11277   */\n      dup6\n        /* \"#utility.yul\":11264:11282   */\n      lt\n        /* \"#utility.yul\":11261:11310   */\n      iszero\n      tag_190\n      jumpi\n        /* \"#utility.yul\":11300:11308   */\n      dup2\n        /* \"#utility.yul\":11285:11308   */\n      swap1\n      pop\n        /* \"#utility.yul\":11261:11310   */\n    tag_190:\n        /* \"#utility.yul\":11323:11403   */\n      tag_191\n        /* \"#utility.yul\":11379:11401   */\n      tag_192\n        /* \"#utility.yul\":11397:11400   */\n      dup6\n        /* \"#utility.yul\":11379:11401   */\n      tag_63\n      jump\t// in\n    tag_192:\n        /* \"#utility.yul\":11369:11377   */\n      dup4\n        /* \"#utility.yul\":11365:11402   */\n      add\n        /* \"#utility.yul\":11352:11363   */\n      dup3\n        /* \"#utility.yul\":11323:11403   */\n      tag_72\n      jump\t// in\n    tag_191:\n        /* \"#utility.yul\":10982:11413   */\n      pop\n      pop\n        /* \"#utility.yul\":10967:11413   */\n    tag_187:\n        /* \"#utility.yul\":10877:11420   */\n      pop\n      pop\n      pop\n      jump\t// out\n        /* \"#utility.yul\":11426:11543   */\n    tag_74:\n        /* \"#utility.yul\":11480:11488   */\n      0x00\n        /* \"#utility.yul\":11530:11535   */\n      dup3\n        /* \"#utility.yul\":11524:11528   */\n      dup3\n        /* \"#utility.yul\":11520:11536   */\n      shr\n        /* \"#utility.yul\":11499:11536   */\n      swap1\n      pop\n        /* \"#utility.yul\":11426:11543   */\n      swap3\n      swap2\n      pop\n      pop\n      jump\t// out\n        /* \"#utility.yul\":11549:11718   */\n    tag_75:\n        /* \"#utility.yul\":11593:11599   */\n      0x00\n        /* \"#utility.yul\":11626:11677   */\n      tag_195\n        /* \"#utility.yul\":11674:11675   */\n      0x00\n        /* \"#utility.yul\":11670:11676   */\n      not\n        /* \"#utility.yul\":11662:11667   */\n      dup5\n        /* \"#utility.yul\":11659:11660   */\n      0x08\n        /* \"#utility.yul\":11655:11668   */\n      mul\n        /* \"#utility.yul\":11626:11677   */\n      tag_74\n      jump\t// in\n    tag_195:\n        /* \"#utility.yul\":11622:11678   */\n      not\n        /* \"#utility.yul\":11707:11711   */\n      dup1\n        /* \"#utility.yul\":11701:11705   */\n      dup4\n        /* \"#utility.yul\":11697:11712   */\n      and\n        /* \"#utility.yul\":11687:11712   */\n      swap2\n      pop\n        /* \"#utility.yul\":11600:11718   */\n      pop\n        /* \"#utility.yul\":11549:11718   */\n      swap3\n      swap2\n      pop\n      pop\n      jump\t// out\n        /* \"#utility.yul\":11723:12018   */\n    tag_76:\n        /* \"#utility.yul\":11799:11803   */\n      0x00\n        /* \"#utility.yul\":11945:11974   */\n      tag_197\n        /* \"#utility.yul\":11970:11973   */\n      dup4\n        /* \"#utility.yul\":11964:11968   */\n      dup4\n        /* \"#utility.yul\":11945:11974   */\n      tag_75\n      jump\t// in\n    tag_197:\n        /* \"#utility.yul\":11937:11974   */\n      swap2\n      pop\n        /* \"#utility.yul\":12007:12010   */\n      dup3\n        /* \"#utility.yul\":12004:12005   */\n      0x02\n        /* \"#utility.yul\":12000:12011   */\n      mul\n        /* \"#utility.yul\":11994:11998   */\n      dup3\n        /* \"#utility.yul\":11991:12012   */\n      or\n        /* \"#utility.yul\":11983:12012   */\n      swap1\n      pop\n        /* \"#utility.yul\":11723:12018   */\n      swap3\n      swap2\n      pop\n      pop\n      jump\t// out\n        /* \"#utility.yul\":12023:13418   */\n    tag_16:\n        /* \"#utility.yul\":12140:12177   */\n      tag_199\n        /* \"#utility.yul\":12173:12176   */\n      dup3\n        /* \"#utility.yul\":12140:12177   */\n      tag_52\n      jump\t// in\n    tag_199:\n        /* \"#utility.yul\":12242:12260   */\n      0xffffffffffffffff\n        /* \"#utility.yul\":12234:12240   */\n      dup2\n        /* \"#utility.yul\":12231:12261   */\n      gt\n        /* \"#utility.yul\":12228:12284   */\n      iszero\n      tag_200\n      jumpi\n        /* \"#utility.yul\":12264:12282   */\n      tag_201\n      tag_39\n      jump\t// in\n    tag_201:\n        /* \"#utility.yul\":12228:12284   */\n    tag_200:\n        /* \"#utility.yul\":12308:12346   */\n      tag_202\n        /* \"#utility.yul\":12340:12344   */\n      dup3\n        /* \"#utility.yul\":12334:12345   */\n      sload\n        /* \"#utility.yul\":12308:12346   */\n      tag_23\n      jump\t// in\n    tag_202:\n        /* \"#utility.yul\":12393:12460   */\n      tag_203\n        /* \"#utility.yul\":12453:12459   */\n      dup3\n        /* \"#utility.yul\":12445:12451   */\n      dup3\n        /* \"#utility.yul\":12439:12443   */\n      dup6\n        /* \"#utility.yul\":12393:12460   */\n      tag_73\n      jump\t// in\n    tag_203:\n        /* \"#utility.yul\":12487:12488   */\n      0x00\n        /* \"#utility.yul\":12511:12515   */\n      0x20\n        /* \"#utility.yul\":12498:12515   */\n      swap1\n      pop\n        /* \"#utility.yul\":12543:12545   */\n      0x1f\n        /* \"#utility.yul\":12535:12541   */\n      dup4\n        /* \"#utility.yul\":12532:12546   */\n      gt\n        /* \"#utility.yul\":12560:12561   */\n      0x01\n        /* \"#utility.yul\":12555:13173   */\n      dup2\n      eq\n      tag_205\n      jumpi\n        /* \"#utility.yul\":13217:13218   */\n      0x00\n        /* \"#utility.yul\":13234:13240   */\n      dup5\n        /* \"#utility.yul\":13231:13308   */\n      iszero\n      tag_206\n      jumpi\n        /* \"#utility.yul\":13283:13292   */\n      dup3\n        /* \"#utility.yul\":13278:13281   */\n      dup8\n        /* \"#utility.yul\":13274:13293   */\n      add\n        /* \"#utility.yul\":13268:13294   */\n      mload\n        /* \"#utility.yul\":13259:13294   */\n      swap1\n      pop\n        /* \"#utility.yul\":13231:13308   */\n    tag_206:\n        /* \"#utility.yul\":13334:13401   */\n      tag_207\n        /* \"#utility.yul\":13394:13400   */\n      dup6\n        /* \"#utility.yul\":13387:13392   */\n      dup3\n        /* \"#utility.yul\":13334:13401   */\n      tag_76\n      jump\t// in\n    tag_207:\n        /* \"#utility.yul\":13328:13332   */\n      dup7\n        /* \"#utility.yul\":13321:13402   */\n      sstore\n        /* \"#utility.yul\":13190:13412   */\n      pop\n        /* \"#utility.yul\":12525:13412   */\n      jump(tag_204)\n        /* \"#utility.yul\":12555:13173   */\n    tag_205:\n        /* \"#utility.yul\":12607:12611   */\n      0x1f\n        /* \"#utility.yul\":12603:12612   */\n      not\n        /* \"#utility.yul\":12595:12601   */\n      dup5\n        /* \"#utility.yul\":12591:12613   */\n      and\n        /* \"#utility.yul\":12641:12678   */\n      tag_208\n        /* \"#utility.yul\":12673:12677   */\n      dup7\n        /* \"#utility.yul\":12641:12678   */\n      tag_62\n      jump\t// in\n    tag_208:\n        /* \"#utility.yul\":12700:12701   */\n      0x00\n        /* \"#utility.yul\":12714:12922   */\n    tag_209:\n        /* \"#utility.yul\":12728:12735   */\n      dup3\n        /* \"#utility.yul\":12725:12726   */\n      dup2\n        /* \"#utility.yul\":12722:12736   */\n      lt\n        /* \"#utility.yul\":12714:12922   */\n      iszero\n      tag_211\n      jumpi\n        /* \"#utility.yul\":12807:12816   */\n      dup5\n        /* \"#utility.yul\":12802:12805   */\n      dup10\n        /* \"#utility.yul\":12798:12817   */\n      add\n        /* \"#utility.yul\":12792:12818   */\n      mload\n        /* \"#utility.yul\":12784:12790   */\n      dup3\n        /* \"#utility.yul\":12777:12819   */\n      sstore\n        /* \"#utility.yul\":12858:12859   */\n      0x01\n        /* \"#utility.yul\":12850:12856   */\n      dup3\n        /* \"#utility.yul\":12846:12860   */\n      add\n        /* \"#utility.yul\":12836:12860   */\n      swap2\n      pop\n        /* \"#utility.yul\":12905:12907   */\n      0x20\n        /* \"#utility.yul\":12894:12903   */\n      dup6\n        /* \"#utility.yul\":12890:12908   */\n      add\n        /* \"#utility.yul\":12877:12908   */\n      swap5\n      pop\n        /* \"#utility.yul\":12751:12755   */\n      0x20\n        /* \"#utility.yul\":12748:12749   */\n      dup2\n        /* \"#utility.yul\":12744:12756   */\n      add\n        /* \"#utility.yul\":12739:12756   */\n      swap1\n      pop\n        /* \"#utility.yul\":12714:12922   */\n      jump(tag_209)\n    tag_211:\n        /* \"#utility.yul\":12950:12956   */\n      dup7\n        /* \"#utility.yul\":12941:12948   */\n      dup4\n        /* \"#utility.yul\":12938:12957   */\n      lt\n        /* \"#utility.yul\":12935:13114   */\n      iszero\n      tag_212\n      jumpi\n        /* \"#utility.yul\":13008:13017   */\n      dup5\n        /* \"#utility.yul\":13003:13006   */\n      dup10\n        /* \"#utility.yul\":12999:13018   */\n      add\n        /* \"#utility.yul\":12993:13019   */\n      mload\n        /* \"#utility.yul\":13051:13099   */\n      tag_213\n        /* \"#utility.yul\":13093:13097   */\n      0x1f\n        /* \"#utility.yul\":13085:13091   */\n      dup10\n        /* \"#utility.yul\":13081:13098   */\n      and\n        /* \"#utility.yul\":13070:13079   */\n      dup3\n        /* \"#utility.yul\":13051:13099   */\n      tag_75\n      jump\t// in\n    tag_213:\n        /* \"#utility.yul\":13043:13049   */\n      dup4\n        /* \"#utility.yul\":13036:13100   */\n      sstore\n        /* \"#utility.yul\":12958:13114   */\n      pop\n        /* \"#utility.yul\":12935:13114   */\n    tag_212:\n        /* \"#utility.yul\":13160:13161   */\n      0x01\n        /* \"#utility.yul\":13156:13157   */\n      0x02\n        /* \"#utility.yul\":13148:13154   */\n      dup9\n        /* \"#utility.yul\":13144:13158   */\n      mul\n        /* \"#utility.yul\":13140:13162   */\n      add\n        /* \"#utility.yul\":13134:13138   */\n      dup9\n        /* \"#utility.yul\":13127:13163   */\n      sstore\n        /* \"#utility.yul\":12562:13173   */\n      pop\n      pop\n      pop\n        /* \"#utility.yul\":12525:13412   */\n    tag_204:\n      pop\n        /* \"#utility.yul\":12115:13418   */\n      pop\n      pop\n      pop\n        /* \"#utility.yul\":12023:13418   */\n      pop\n      pop\n      jump\t// out\n\n    auxdata: 0xa2646970667358221220aaf8a41da1853a523565ccd10fed619ce88131f6b06391ec68073ae46e121e2d64736f6c634300081e0033\n}\n",
				"bytecode": {
					"linkReferences": {},
					"object": "6080604052348015600e575f5ffd5b506109628061001c5f395ff3fe608060405234801561000f575f5ffd5b5060043610610034575f3560e01c806378529ead14610038578063f1d064b314610054575b5f5ffd5b610052600480360381019061004d9190610413565b610072565b005b61005c610105565b6040516100699190610640565b60405180910390f35b5f60405180608001604052808681526020018581526020018481526020018381525090505f81908060018154018082558091505060019003905f5260205f2090600402015f909190919091505f820151815f0190816100d1919061085d565b5060208201518160010190816100e7919061085d565b50604082015181600201556060820151816003015550505050505050565b60605f805480602002602001604051908101604052809291908181526020015f905b8282101561028a578382905f5260205f2090600402016040518060800160405290815f820180546101579061068d565b80601f01602080910402602001604051908101604052809291908181526020018280546101839061068d565b80156101ce5780601f106101a5576101008083540402835291602001916101ce565b820191905f5260205f20905b8154815290600101906020018083116101b157829003601f168201915b505050505081526020016001820180546101e79061068d565b80601f01602080910402602001604051908101604052809291908181526020018280546102139061068d565b801561025e5780601f106102355761010080835404028352916020019161025e565b820191905f5260205f20905b81548152906001019060200180831161024157829003601f168201915b505050505081526020016002820154815260200160038201548152505081526020019060010190610127565b50505050905090565b5f604051905090565b5f5ffd5b5f5ffd5b5f5ffd5b5f5ffd5b5f601f19601f8301169050919050565b7f4e487b71000000000000000000000000000000000000000000000000000000005f52604160045260245ffd5b6102f2826102ac565b810181811067ffffffffffffffff82111715610311576103106102bc565b5b80604052505050565b5f610323610293565b905061032f82826102e9565b919050565b5f67ffffffffffffffff82111561034e5761034d6102bc565b5b610357826102ac565b9050602081019050919050565b828183375f83830152505050565b5f61038461037f84610334565b61031a565b9050828152602081018484840111156103a05761039f6102a8565b5b6103ab848285610364565b509392505050565b5f82601f8301126103c7576103c66102a4565b5b81356103d7848260208601610372565b91505092915050565b5f819050919050565b6103f2816103e0565b81146103fc575f5ffd5b50565b5f8135905061040d816103e9565b92915050565b5f5f5f5f6080858703121561042b5761042a61029c565b5b5f85013567ffffffffffffffff811115610448576104476102a0565b5b610454878288016103b3565b945050602085013567ffffffffffffffff811115610475576104746102a0565b5b610481878288016103b3565b9350506040610492878288016103ff565b92505060606104a3878288016103ff565b91505092959194509250565b5f81519050919050565b5f82825260208201905092915050565b5f819050602082019050919050565b5f81519050919050565b5f82825260208201905092915050565b8281835e5f83830152505050565b5f61050a826104d8565b61051481856104e2565b93506105248185602086016104f2565b61052d816102ac565b840191505092915050565b610541816103e0565b82525050565b5f608083015f8301518482035f8601526105618282610500565b9150506020830151848203602086015261057b8282610500565b91505060408301516105906040860182610538565b5060608301516105a36060860182610538565b508091505092915050565b5f6105b98383610547565b905092915050565b5f602082019050919050565b5f6105d7826104af565b6105e181856104b9565b9350836020820285016105f3856104c9565b805f5b8581101561062e578484038952815161060f85826105ae565b945061061a836105c1565b925060208a019950506001810190506105f6565b50829750879550505050505092915050565b5f6020820190508181035f83015261065881846105cd565b905092915050565b7f4e487b71000000000000000000000000000000000000000000000000000000005f52602260045260245ffd5b5f60028204905060018216806106a457607f821691505b6020821081036106b7576106b6610660565b5b50919050565b5f819050815f5260205f209050919050565b5f6020601f8301049050919050565b5f82821b905092915050565b5f600883026107197fffffffffffffffffffffffffffffffffffffffffffffffffffffffffffffffff826106de565b61072386836106de565b95508019841693508086168417925050509392505050565b5f819050919050565b5f61075e610759610754846103e0565b61073b565b6103e0565b9050919050565b5f819050919050565b61077783610744565b61078b61078382610765565b8484546106ea565b825550505050565b5f5f905090565b6107a2610793565b6107ad81848461076e565b505050565b5b818110156107d0576107c55f8261079a565b6001810190506107b3565b5050565b601f821115610815576107e6816106bd565b6107ef846106cf565b810160208510156107fe578190505b61081261080a856106cf565b8301826107b2565b50505b505050565b5f82821c905092915050565b5f6108355f198460080261081a565b1980831691505092915050565b5f61084d8383610826565b9150826002028217905092915050565b610866826104d8565b67ffffffffffffffff81111561087f5761087e6102bc565b5b610889825461068d565b6108948282856107d4565b5f60209050601f8311600181146108c5575f84156108b3578287015190505b6108bd8582610842565b865550610924565b601f1984166108d3866106bd565b5f5b828110156108fa578489015182556001820191506020850194506020810190506108d5565b868310156109175784890151610913601f891682610826565b8355505b6001600288020188555050505b50505050505056fea2646970667358221220aaf8a41da1853a523565ccd10fed619ce88131f6b06391ec68073ae46e121e2d64736f6c634300081e0033",
					"opcodes": "PUSH1 0x80 PUSH1 0x40 MSTORE CALLVALUE DUP1 ISZERO PUSH1 0xE JUMPI PUSH0 PUSH0 REVERT JUMPDEST POP PUSH2 0x962 DUP1 PUSH2 0x1C PUSH0 CODECOPY PUSH0 RETURN INVALID PUSH1 0x80 PUSH1 0x40 MSTORE CALLVALUE DUP1 ISZERO PUSH2 0xF JUMPI PUSH0 PUSH0 REVERT JUMPDEST POP PUSH1 0x4 CALLDATASIZE LT PUSH2 0x34 JUMPI PUSH0 CALLDATALOAD PUSH1 0xE0 SHR DUP1 PUSH4 0x78529EAD EQ PUSH2 0x38 JUMPI DUP1 PUSH4 0xF1D064B3 EQ PUSH2 0x54 JUMPI JUMPDEST PUSH0 PUSH0 REVERT JUMPDEST PUSH2 0x52 PUSH1 0x4 DUP1 CALLDATASIZE SUB DUP2 ADD SWAP1 PUSH2 0x4D SWAP2 SWAP1 PUSH2 0x413 JUMP JUMPDEST PUSH2 0x72 JUMP JUMPDEST STOP JUMPDEST PUSH2 0x5C PUSH2 0x105 JUMP JUMPDEST PUSH1 0x40 MLOAD PUSH2 0x69 SWAP2 SWAP1 PUSH2 0x640 JUMP JUMPDEST PUSH1 0x40 MLOAD DUP1 SWAP2 SUB SWAP1 RETURN JUMPDEST PUSH0 PUSH1 0x40 MLOAD DUP1 PUSH1 0x80 ADD PUSH1 0x40 MSTORE DUP1 DUP7 DUP2 MSTORE PUSH1 0x20 ADD DUP6 DUP2 MSTORE PUSH1 0x20 ADD DUP5 DUP2 MSTORE PUSH1 0x20 ADD DUP4 DUP2 MSTORE POP SWAP1 POP PUSH0 DUP2 SWAP1 DUP1 PUSH1 0x1 DUP2 SLOAD ADD DUP1 DUP3 SSTORE DUP1 SWAP2 POP POP PUSH1 0x1 SWAP1 SUB SWAP1 PUSH0 MSTORE PUSH1 0x20 PUSH0 KECCAK256 SWAP1 PUSH1 0x4 MUL ADD PUSH0 SWAP1 SWAP2 SWAP1 SWAP2 SWAP1 SWAP2 POP PUSH0 DUP3 ADD MLOAD DUP2 PUSH0 ADD SWAP1 DUP2 PUSH2 0xD1 SWAP2 SWAP1 PUSH2 0x85D JUMP JUMPDEST POP PUSH1 0x20 DUP3 ADD MLOAD DUP2 PUSH1 0x1 ADD SWAP1 DUP2 PUSH2 0xE7 SWAP2 SWAP1 PUSH2 0x85D JUMP JUMPDEST POP PUSH1 0x40 DUP3 ADD MLOAD DUP2 PUSH1 0x2 ADD SSTORE PUSH1 0x60 DUP3 ADD MLOAD DUP2 PUSH1 0x3 ADD SSTORE POP POP POP POP POP POP POP JUMP JUMPDEST PUSH1 0x60 PUSH0 DUP1 SLOAD DUP1 PUSH1 0x20 MUL PUSH1 0x20 ADD PUSH1 0x40 MLOAD SWAP1 DUP2 ADD PUSH1 0x40 MSTORE DUP1 SWAP3 SWAP2 SWAP1 DUP2 DUP2 MSTORE PUSH1 0x20 ADD PUSH0 SWAP1 JUMPDEST DUP3 DUP3 LT ISZERO PUSH2 0x28A JUMPI DUP4 DUP3 SWAP1 PUSH0 MSTORE PUSH1 0x20 PUSH0 KECCAK256 SWAP1 PUSH1 0x4 MUL ADD PUSH1 0x40 MLOAD DUP1 PUSH1 0x80 ADD PUSH1 0x40 MSTORE SWAP1 DUP2 PUSH0 DUP3 ADD DUP1 SLOAD PUSH2 0x157 SWAP1 PUSH2 0x68D JUMP JUMPDEST DUP1 PUSH1 0x1F ADD PUSH1 0x20 DUP1 SWAP2 DIV MUL PUSH1 0x20 ADD PUSH1 0x40 MLOAD SWAP1 DUP2 ADD PUSH1 0x40 MSTORE DUP1 SWAP3 SWAP2 SWAP1 DUP2 DUP2 MSTORE PUSH1 0x20 ADD DUP3 DUP1 SLOAD PUSH2 0x183 SWAP1 PUSH2 0x68D JUMP JUMPDEST DUP1 ISZERO PUSH2 0x1CE JUMPI DUP1 PUSH1 0x1F LT PUSH2 0x1A5 JUMPI PUSH2 0x100 DUP1 DUP4 SLOAD DIV MUL DUP4 MSTORE SWAP2 PUSH1 0x20 ADD SWAP2 PUSH2 0x1CE JUMP JUMPDEST DUP3 ADD SWAP2 SWAP1 PUSH0 MSTORE PUSH1 0x20 PUSH0 KECCAK256 SWAP1 JUMPDEST DUP2 SLOAD DUP2 MSTORE SWAP1 PUSH1 0x1 ADD SWAP1 PUSH1 0x20 ADD DUP1 DUP4 GT PUSH2 0x1B1 JUMPI DUP3 SWAP1 SUB PUSH1 0x1F AND DUP3 ADD SWAP2 JUMPDEST POP POP POP POP POP DUP2 MSTORE PUSH1 0x20 ADD PUSH1 0x1 DUP3 ADD DUP1 SLOAD PUSH2 0x1E7 SWAP1 PUSH2 0x68D JUMP JUMPDEST DUP1 PUSH1 0x1F ADD PUSH1 0x20 DUP1 SWAP2 DIV MUL PUSH1 0x20 ADD PUSH1 0x40 MLOAD SWAP1 DUP2 ADD PUSH1 0x40 MSTORE DUP1 SWAP3 SWAP2 SWAP1 DUP2 DUP2 MSTORE PUSH1 0x20 ADD DUP3 DUP1 SLOAD PUSH2 0x213 SWAP1 PUSH2 0x68D JUMP JUMPDEST DUP1 ISZERO PUSH2 0x25E JUMPI DUP1 PUSH1 0x1F LT PUSH2 0x235 JUMPI PUSH2 0x100 DUP1 DUP4 SLOAD DIV MUL DUP4 MSTORE SWAP2 PUSH1 0x20 ADD SWAP2 PUSH2 0x25E JUMP JUMPDEST DUP3 ADD SWAP2 SWAP1 PUSH0 MSTORE PUSH1 0x20 PUSH0 KECCAK256 SWAP1 JUMPDEST DUP2 SLOAD DUP2 MSTORE SWAP1 PUSH1 0x1 ADD SWAP1 PUSH1 0x20 ADD DUP1 DUP4 GT PUSH2 0x241 JUMPI DUP3 SWAP1 SUB PUSH1 0x1F AND DUP3 ADD SWAP2 JUMPDEST POP POP POP POP POP DUP2 MSTORE PUSH1 0x20 ADD PUSH1 0x2 DUP3 ADD SLOAD DUP2 MSTORE PUSH1 0x20 ADD PUSH1 0x3 DUP3 ADD SLOAD DUP2 MSTORE POP POP DUP2 MSTORE PUSH1 0x20 ADD SWAP1 PUSH1 0x1 ADD SWAP1 PUSH2 0x127 JUMP JUMPDEST POP POP POP POP SWAP1 POP SWAP1 JUMP JUMPDEST PUSH0 PUSH1 0x40 MLOAD SWAP1 POP SWAP1 JUMP JUMPDEST PUSH0 PUSH0 REVERT JUMPDEST PUSH0 PUSH0 REVERT JUMPDEST PUSH0 PUSH0 REVERT JUMPDEST PUSH0 PUSH0 REVERT JUMPDEST PUSH0 PUSH1 0x1F NOT PUSH1 0x1F DUP4 ADD AND SWAP1 POP SWAP2 SWAP1 POP JUMP JUMPDEST PUSH32 0x4E487B7100000000000000000000000000000000000000000000000000000000 PUSH0 MSTORE PUSH1 0x41 PUSH1 0x4 MSTORE PUSH1 0x24 PUSH0 REVERT JUMPDEST PUSH2 0x2F2 DUP3 PUSH2 0x2AC JUMP JUMPDEST DUP2 ADD DUP2 DUP2 LT PUSH8 0xFFFFFFFFFFFFFFFF DUP3 GT OR ISZERO PUSH2 0x311 JUMPI PUSH2 0x310 PUSH2 0x2BC JUMP JUMPDEST JUMPDEST DUP1 PUSH1 0x40 MSTORE POP POP POP JUMP JUMPDEST PUSH0 PUSH2 0x323 PUSH2 0x293 JUMP JUMPDEST SWAP1 POP PUSH2 0x32F DUP3 DUP3 PUSH2 0x2E9 JUMP JUMPDEST SWAP2 SWAP1 POP JUMP JUMPDEST PUSH0 PUSH8 0xFFFFFFFFFFFFFFFF DUP3 GT ISZERO PUSH2 0x34E JUMPI PUSH2 0x34D PUSH2 0x2BC JUMP JUMPDEST JUMPDEST PUSH2 0x357 DUP3 PUSH2 0x2AC JUMP JUMPDEST SWAP1 POP PUSH1 0x20 DUP2 ADD SWAP1 POP SWAP2 SWAP1 POP JUMP JUMPDEST DUP3 DUP2 DUP4 CALLDATACOPY PUSH0 DUP4 DUP4 ADD MSTORE POP POP POP JUMP JUMPDEST PUSH0 PUSH2 0x384 PUSH2 0x37F DUP5 PUSH2 0x334 JUMP JUMPDEST PUSH2 0x31A JUMP JUMPDEST SWAP1 POP DUP3 DUP2 MSTORE PUSH1 0x20 DUP2 ADD DUP5 DUP5 DUP5 ADD GT ISZERO PUSH2 0x3A0 JUMPI PUSH2 0x39F PUSH2 0x2A8 JUMP JUMPDEST JUMPDEST PUSH2 0x3AB DUP5 DUP3 DUP6 PUSH2 0x364 JUMP JUMPDEST POP SWAP4 SWAP3 POP POP POP JUMP JUMPDEST PUSH0 DUP3 PUSH1 0x1F DUP4 ADD SLT PUSH2 0x3C7 JUMPI PUSH2 0x3C6 PUSH2 0x2A4 JUMP JUMPDEST JUMPDEST DUP2 CALLDATALOAD PUSH2 0x3D7 DUP5 DUP3 PUSH1 0x20 DUP7 ADD PUSH2 0x372 JUMP JUMPDEST SWAP2 POP POP SWAP3 SWAP2 POP POP JUMP JUMPDEST PUSH0 DUP2 SWAP1 POP SWAP2 SWAP1 POP JUMP JUMPDEST PUSH2 0x3F2 DUP2 PUSH2 0x3E0 JUMP JUMPDEST DUP2 EQ PUSH2 0x3FC JUMPI PUSH0 PUSH0 REVERT JUMPDEST POP JUMP JUMPDEST PUSH0 DUP2 CALLDATALOAD SWAP1 POP PUSH2 0x40D DUP2 PUSH2 0x3E9 JUMP JUMPDEST SWAP3 SWAP2 POP POP JUMP JUMPDEST PUSH0 PUSH0 PUSH0 PUSH0 PUSH1 0x80 DUP6 DUP8 SUB SLT ISZERO PUSH2 0x42B JUMPI PUSH2 0x42A PUSH2 0x29C JUMP JUMPDEST JUMPDEST PUSH0 DUP6 ADD CALLDATALOAD PUSH8 0xFFFFFFFFFFFFFFFF DUP2 GT ISZERO PUSH2 0x448 JUMPI PUSH2 0x447 PUSH2 0x2A0 JUMP JUMPDEST JUMPDEST PUSH2 0x454 DUP8 DUP3 DUP9 ADD PUSH2 0x3B3 JUMP JUMPDEST SWAP5 POP POP PUSH1 0x20 DUP6 ADD CALLDATALOAD PUSH8 0xFFFFFFFFFFFFFFFF DUP2 GT ISZERO PUSH2 0x475 JUMPI PUSH2 0x474 PUSH2 0x2A0 JUMP JUMPDEST JUMPDEST PUSH2 0x481 DUP8 DUP3 DUP9 ADD PUSH2 0x3B3 JUMP JUMPDEST SWAP4 POP POP PUSH1 0x40 PUSH2 0x492 DUP8 DUP3 DUP9 ADD PUSH2 0x3FF JUMP JUMPDEST SWAP3 POP POP PUSH1 0x60 PUSH2 0x4A3 DUP8 DUP3 DUP9 ADD PUSH2 0x3FF JUMP JUMPDEST SWAP2 POP POP SWAP3 SWAP6 SWAP2 SWAP5 POP SWAP3 POP JUMP JUMPDEST PUSH0 DUP2 MLOAD SWAP1 POP SWAP2 SWAP1 POP JUMP JUMPDEST PUSH0 DUP3 DUP3 MSTORE PUSH1 0x20 DUP3 ADD SWAP1 POP SWAP3 SWAP2 POP POP JUMP JUMPDEST PUSH0 DUP2 SWAP1 POP PUSH1 0x20 DUP3 ADD SWAP1 POP SWAP2 SWAP1 POP JUMP JUMPDEST PUSH0 DUP2 MLOAD SWAP1 POP SWAP2 SWAP1 POP JUMP JUMPDEST PUSH0 DUP3 DUP3 MSTORE PUSH1 0x20 DUP3 ADD SWAP1 POP SWAP3 SWAP2 POP POP JUMP JUMPDEST DUP3 DUP2 DUP4 MCOPY PUSH0 DUP4 DUP4 ADD MSTORE POP POP POP JUMP JUMPDEST PUSH0 PUSH2 0x50A DUP3 PUSH2 0x4D8 JUMP JUMPDEST PUSH2 0x514 DUP2 DUP6 PUSH2 0x4E2 JUMP JUMPDEST SWAP4 POP PUSH2 0x524 DUP2 DUP6 PUSH1 0x20 DUP7 ADD PUSH2 0x4F2 JUMP JUMPDEST PUSH2 0x52D DUP2 PUSH2 0x2AC JUMP JUMPDEST DUP5 ADD SWAP2 POP POP SWAP3 SWAP2 POP POP JUMP JUMPDEST PUSH2 0x541 DUP2 PUSH2 0x3E0 JUMP JUMPDEST DUP3 MSTORE POP POP JUMP JUMPDEST PUSH0 PUSH1 0x80 DUP4 ADD PUSH0 DUP4 ADD MLOAD DUP5 DUP3 SUB PUSH0 DUP7 ADD MSTORE PUSH2 0x561 DUP3 DUP3 PUSH2 0x500 JUMP JUMPDEST SWAP2 POP POP PUSH1 0x20 DUP4 ADD MLOAD DUP5 DUP3 SUB PUSH1 0x20 DUP7 ADD MSTORE PUSH2 0x57B DUP3 DUP3 PUSH2 0x500 JUMP JUMPDEST SWAP2 POP POP PUSH1 0x40 DUP4 ADD MLOAD PUSH2 0x590 PUSH1 0x40 DUP7 ADD DUP3 PUSH2 0x538 JUMP JUMPDEST POP PUSH1 0x60 DUP4 ADD MLOAD PUSH2 0x5A3 PUSH1 0x60 DUP7 ADD DUP3 PUSH2 0x538 JUMP JUMPDEST POP DUP1 SWAP2 POP POP SWAP3 SWAP2 POP POP JUMP JUMPDEST PUSH0 PUSH2 0x5B9 DUP4 DUP4 PUSH2 0x547 JUMP JUMPDEST SWAP1 POP SWAP3 SWAP2 POP POP JUMP JUMPDEST PUSH0 PUSH1 0x20 DUP3 ADD SWAP1 POP SWAP2 SWAP1 POP JUMP JUMPDEST PUSH0 PUSH2 0x5D7 DUP3 PUSH2 0x4AF JUMP JUMPDEST PUSH2 0x5E1 DUP2 DUP6 PUSH2 0x4B9 JUMP JUMPDEST SWAP4 POP DUP4 PUSH1 0x20 DUP3 MUL DUP6 ADD PUSH2 0x5F3 DUP6 PUSH2 0x4C9 JUMP JUMPDEST DUP1 PUSH0 JUMPDEST DUP6 DUP2 LT ISZERO PUSH2 0x62E JUMPI DUP5 DUP5 SUB DUP10 MSTORE DUP2 MLOAD PUSH2 0x60F DUP6 DUP3 PUSH2 0x5AE JUMP JUMPDEST SWAP5 POP PUSH2 0x61A DUP4 PUSH2 0x5C1 JUMP JUMPDEST SWAP3 POP PUSH1 0x20 DUP11 ADD SWAP10 POP POP PUSH1 0x1 DUP2 ADD SWAP1 POP PUSH2 0x5F6 JUMP JUMPDEST POP DUP3 SWAP8 POP DUP8 SWAP6 POP POP POP POP POP POP SWAP3 SWAP2 POP POP JUMP JUMPDEST PUSH0 PUSH1 0x20 DUP3 ADD SWAP1 POP DUP2 DUP2 SUB PUSH0 DUP4 ADD MSTORE PUSH2 0x658 DUP2 DUP5 PUSH2 0x5CD JUMP JUMPDEST SWAP1 POP SWAP3 SWAP2 POP POP JUMP JUMPDEST PUSH32 0x4E487B7100000000000000000000000000000000000000000000000000000000 PUSH0 MSTORE PUSH1 0x22 PUSH1 0x4 MSTORE PUSH1 0x24 PUSH0 REVERT JUMPDEST PUSH0 PUSH1 0x2 DUP3 DIV SWAP1 POP PUSH1 0x1 DUP3 AND DUP1 PUSH2 0x6A4 JUMPI PUSH1 0x7F DUP3 AND SWAP2 POP JUMPDEST PUSH1 0x20 DUP3 LT DUP2 SUB PUSH2 0x6B7 JUMPI PUSH2 0x6B6 PUSH2 0x660 JUMP JUMPDEST JUMPDEST POP SWAP2 SWAP1 POP JUMP JUMPDEST PUSH0 DUP2 SWAP1 POP DUP2 PUSH0 MSTORE PUSH1 0x20 PUSH0 KECCAK256 SWAP1 POP SWAP2 SWAP1 POP JUMP JUMPDEST PUSH0 PUSH1 0x20 PUSH1 0x1F DUP4 ADD DIV SWAP1 POP SWAP2 SWAP1 POP JUMP JUMPDEST PUSH0 DUP3 DUP3 SHL SWAP1 POP SWAP3 SWAP2 POP POP JUMP JUMPDEST PUSH0 PUSH1 0x8 DUP4 MUL PUSH2 0x719 PUSH32 0xFFFFFFFFFFFFFFFFFFFFFFFFFFFFFFFFFFFFFFFFFFFFFFFFFFFFFFFFFFFFFFFF DUP3 PUSH2 0x6DE JUMP JUMPDEST PUSH2 0x723 DUP7 DUP4 PUSH2 0x6DE JUMP JUMPDEST SWAP6 POP DUP1 NOT DUP5 AND SWAP4 POP DUP1 DUP7 AND DUP5 OR SWAP3 POP POP POP SWAP4 SWAP3 POP POP POP JUMP JUMPDEST PUSH0 DUP2 SWAP1 POP SWAP2 SWAP1 POP JUMP JUMPDEST PUSH0 PUSH2 0x75E PUSH2 0x759 PUSH2 0x754 DUP5 PUSH2 0x3E0 JUMP JUMPDEST PUSH2 0x73B JUMP JUMPDEST PUSH2 0x3E0 JUMP JUMPDEST SWAP1 POP SWAP2 SWAP1 POP JUMP JUMPDEST PUSH0 DUP2 SWAP1 POP SWAP2 SWAP1 POP JUMP JUMPDEST PUSH2 0x777 DUP4 PUSH2 0x744 JUMP JUMPDEST PUSH2 0x78B PUSH2 0x783 DUP3 PUSH2 0x765 JUMP JUMPDEST DUP5 DUP5 SLOAD PUSH2 0x6EA JUMP JUMPDEST DUP3 SSTORE POP POP POP POP JUMP JUMPDEST PUSH0 PUSH0 SWAP1 POP SWAP1 JUMP JUMPDEST PUSH2 0x7A2 PUSH2 0x793 JUMP JUMPDEST PUSH2 0x7AD DUP2 DUP5 DUP5 PUSH2 0x76E JUMP JUMPDEST POP POP POP JUMP JUMPDEST JUMPDEST DUP2 DUP2 LT ISZERO PUSH2 0x7D0 JUMPI PUSH2 0x7C5 PUSH0 DUP3 PUSH2 0x79A JUMP JUMPDEST PUSH1 0x1 DUP2 ADD SWAP1 POP PUSH2 0x7B3 JUMP JUMPDEST POP POP JUMP JUMPDEST PUSH1 0x1F DUP3 GT ISZERO PUSH2 0x815 JUMPI PUSH2 0x7E6 DUP2 PUSH2 0x6BD JUMP JUMPDEST PUSH2 0x7EF DUP5 PUSH2 0x6CF JUMP JUMPDEST DUP2 ADD PUSH1 0x20 DUP6 LT ISZERO PUSH2 0x7FE JUMPI DUP2 SWAP1 POP JUMPDEST PUSH2 0x812 PUSH2 0x80A DUP6 PUSH2 0x6CF JUMP JUMPDEST DUP4 ADD DUP3 PUSH2 0x7B2 JUMP JUMPDEST POP POP JUMPDEST POP POP POP JUMP JUMPDEST PUSH0 DUP3 DUP3 SHR SWAP1 POP SWAP3 SWAP2 POP POP JUMP JUMPDEST PUSH0 PUSH2 0x835 PUSH0 NOT DUP5 PUSH1 0x8 MUL PUSH2 0x81A JUMP JUMPDEST NOT DUP1 DUP4 AND SWAP2 POP POP SWAP3 SWAP2 POP POP JUMP JUMPDEST PUSH0 PUSH2 0x84D DUP4 DUP4 PUSH2 0x826 JUMP JUMPDEST SWAP2 POP DUP3 PUSH1 0x2 MUL DUP3 OR SWAP1 POP SWAP3 SWAP2 POP POP JUMP JUMPDEST PUSH2 0x866 DUP3 PUSH2 0x4D8 JUMP JUMPDEST PUSH8 0xFFFFFFFFFFFFFFFF DUP2 GT ISZERO PUSH2 0x87F JUMPI PUSH2 0x87E PUSH2 0x2BC JUMP JUMPDEST JUMPDEST PUSH2 0x889 DUP3 SLOAD PUSH2 0x68D JUMP JUMPDEST PUSH2 0x894 DUP3 DUP3 DUP6 PUSH2 0x7D4 JUMP JUMPDEST PUSH0 PUSH1 0x20 SWAP1 POP PUSH1 0x1F DUP4 GT PUSH1 0x1 DUP2 EQ PUSH2 0x8C5 JUMPI PUSH0 DUP5 ISZERO PUSH2 0x8B3 JUMPI DUP3 DUP8 ADD MLOAD SWAP1 POP JUMPDEST PUSH2 0x8BD DUP6 DUP3 PUSH2 0x842 JUMP JUMPDEST DUP7 SSTORE POP PUSH2 0x924 JUMP JUMPDEST PUSH1 0x1F NOT DUP5 AND PUSH2 0x8D3 DUP7 PUSH2 0x6BD JUMP JUMPDEST PUSH0 JUMPDEST DUP3 DUP2 LT ISZERO PUSH2 0x8FA JUMPI DUP5 DUP10 ADD MLOAD DUP3 SSTORE PUSH1 0x1 DUP3 ADD SWAP2 POP PUSH1 0x20 DUP6 ADD SWAP5 POP PUSH1 0x20 DUP2 ADD SWAP1 POP PUSH2 0x8D5 JUMP JUMPDEST DUP7 DUP4 LT ISZERO PUSH2 0x917 JUMPI DUP5 DUP10 ADD MLOAD PUSH2 0x913 PUSH1 0x1F DUP10 AND DUP3 PUSH2 0x826 JUMP JUMPDEST DUP4 SSTORE POP JUMPDEST PUSH1 0x1 PUSH1 0x2 DUP9 MUL ADD DUP9 SSTORE POP POP POP JUMPDEST POP POP POP POP POP POP JUMP INVALID LOG2 PUSH5 0x6970667358 0x22 SLT KECCAK256 0xAA EXTCALL LOG4 SAR LOG1 DUP6 GASPRICE MSTORE CALLDATALOAD PUSH6 0xCCD10FED619C 0xE8 DUP2 BALANCE 0xF6 0xB0 PUSH4 0x91EC6807 GASPRICE RETF PUSH15 0x121E2D64736F6C634300081E003300 "
				},
				"gasEstimates": {
					"creation": {
						"codeDepositCost": "480400",
						"executionCost": "516",
						"totalCost": "480916"
					},
					"external": {
						"addStudent(string,string,uint256,uint256)": "infinite",
						"getStudents()": "infinite"
					}
				},
				"methodIdentifiers": {
					"addStudent(string,string,uint256,uint256)": "78529ead",
					"getStudents()": "f1d064b3"
				}
			},
			"storageLayout": {
				"storage": [
					{
						"astId": 16,
						"contract": "contracts/1_Storage.sol:Storage",
						"label": "semesterData",
						"offset": 0,
						"slot": "0",
						"type": "t_array(t_struct(Student)12_storage)dyn_storage"
					}
				],
				"types": {
					"t_array(t_struct(Student)12_storage)dyn_storage": {
						"base": "t_struct(Student)12_storage",
						"encoding": "dynamic_array",
						"label": "struct Storage.Student[]",
						"numberOfBytes": "32"
					},
					"t_string_storage": {
						"encoding": "bytes",
						"label": "string",
						"numberOfBytes": "32"
					},
					"t_struct(Student)12_storage": {
						"encoding": "inplace",
						"label": "struct Storage.Student",
						"members": [
							{
								"astId": 5,
								"contract": "contracts/1_Storage.sol:Storage",
								"label": "gpa",
								"offset": 0,
								"slot": "0",
								"type": "t_string_storage"
							},
							{
								"astId": 7,
								"contract": "contracts/1_Storage.sol:Storage",
								"label": "semesterName",
								"offset": 0,
								"slot": "1",
								"type": "t_string_storage"
							},
							{
								"astId": 9,
								"contract": "contracts/1_Storage.sol:Storage",
								"label": "studentID",
								"offset": 0,
								"slot": "2",
								"type": "t_uint256"
							},
							{
								"astId": 11,
								"contract": "contracts/1_Storage.sol:Storage",
								"label": "courseTaken",
								"offset": 0,
								"slot": "3",
								"type": "t_uint256"
							}
						],
						"numberOfBytes": "128"
					},
					"t_uint256": {
						"encoding": "inplace",
						"label": "uint256",
						"numberOfBytes": "32"
					}
				}
			},
			"userdoc": {
				"kind": "user",
				"methods": {},
				"version": 1
			}
		}
	}
}