{
	"data": {
		"bytecode": {
			"linkReferences": {},
			"object": "6080604052348015600e575f5ffd5b50610e8d8061001c5f395ff3fe608060405234801561000f575f5ffd5b506004361061003f575f3560e01c806320fb32b414610043578063ce7b0e281461005f578063cfab642d14610091575b5f5ffd5b61005d600480360381019061005891906108cf565b6100ad565b005b61007960048036038101906100749190610957565b610119565b604051610088939291906109f1565b60405180910390f35b6100ab60048036038101906100a69190610a34565b61024a565b005b5f6040518060600160405280858152602001848152602001838152509050805f5f8681526020019081526020015f205f820151815f015560208201518160010190816100f99190610c8b565b50604082015181600201908161010f9190610c8b565b5090505050505050565b5f602052805f5260405f205f91509050805f01549080600101805461013d90610abb565b80601f016020809104026020016040519081016040528092919081815260200182805461016990610abb565b80156101b45780601f1061018b576101008083540402835291602001916101b4565b820191905f5260205f20905b81548152906001019060200180831161019757829003601f168201915b5050505050908060020180546101c990610abb565b80601f01602080910402602001604051908101604052809291908181526020018280546101f590610abb565b80156102405780601f1061021757610100808354040283529160200191610240565b820191905f5260205f20905b81548152906001019060200180831161022357829003601f168201915b5050505050905083565b5f5f5f8481526020019081526020015f2090505f81600101805461026d90610abb565b9050036102af576040517f08c379a00000000000000000000000000000000000000000000000000000000081526004016102a690610da4565b60405180910390fd5b5f8160020180546102bf90610abb565b80601f01602080910402602001604051908101604052809291908181526020018280546102eb90610abb565b80156103365780601f1061030d57610100808354040283529160200191610336565b820191905f5260205f20905b81548152906001019060200180831161031957829003601f168201915b5050505050905061037c816040518060400160405280600681526020017f4143544956450000000000000000000000000000000000000000000000000000815250610566565b80156103c357506103c2836040518060400160405280600b81526020017f494e5f50524f4752455353000000000000000000000000000000000000000000815250610566565b5b156103df57828260020190816103d99190610c8b565b50610560565b61041e816040518060400160405280600b81526020017f494e5f50524f4752455353000000000000000000000000000000000000000000815250610566565b80156104655750610464836040518060400160405280600881526020017f434f4d504c455445000000000000000000000000000000000000000000000000815250610566565b5b15610481578282600201908161047b9190610c8b565b5061055f565b6104c0816040518060400160405280600881526020017f434f4d504c455445000000000000000000000000000000000000000000000000815250610566565b80156105075750610506836040518060400160405280600681526020017f434c4f5345440000000000000000000000000000000000000000000000000000815250610566565b5b15610523578282600201908161051d9190610c8b565b5061055e565b6040517f08c379a000000000000000000000000000000000000000000000000000000000815260040161055590610e0c565b60405180910390fd5b5b5b50505050565b5f5f610572848461057b565b14905092915050565b5f5f8390505f8390505f82519050808251101561059757815190505b5f5f90505b818110156106f6578281815181106105b7576105b6610e2a565b5b602001015160f81c60f81b7effffffffffffffffffffffffffffffffffffffffffffffffffffffffffffff19168482815181106105f7576105f6610e2a565b5b602001015160f81c60f81b7effffffffffffffffffffffffffffffffffffffffffffffffffffffffffffff19161015610656577fffffffffffffffffffffffffffffffffffffffffffffffffffffffffffffffff945050505050610749565b82818151811061066957610668610e2a565b5b602001015160f81c60f81b7effffffffffffffffffffffffffffffffffffffffffffffffffffffffffffff19168482815181106106a9576106a8610e2a565b5b602001015160f81c60f81b7effffffffffffffffffffffffffffffffffffffffffffffffffffffffffffff191611156106e9576001945050505050610749565b808060010191505061059c565b5081518351101561072c577fffffffffffffffffffffffffffffffffffffffffffffffffffffffffffffffff9350505050610749565b8151835111156107425760019350505050610749565b5f93505050505b92915050565b5f604051905090565b5f5ffd5b5f5ffd5b5f819050919050565b61077281610760565b811461077c575f5ffd5b50565b5f8135905061078d81610769565b92915050565b5f5ffd5b5f5ffd5b5f601f19601f8301169050919050565b7f4e487b71000000000000000000000000000000000000000000000000000000005f52604160045260245ffd5b6107e18261079b565b810181811067ffffffffffffffff82111715610800576107ff6107ab565b5b80604052505050565b5f61081261074f565b905061081e82826107d8565b919050565b5f67ffffffffffffffff82111561083d5761083c6107ab565b5b6108468261079b565b9050602081019050919050565b828183375f83830152505050565b5f61087361086e84610823565b610809565b90508281526020810184848401111561088f5761088e610797565b5b61089a848285610853565b509392505050565b5f82601f8301126108b6576108b5610793565b5b81356108c6848260208601610861565b91505092915050565b5f5f5f606084860312156108e6576108e5610758565b5b5f6108f38682870161077f565b935050602084013567ffffffffffffffff8111156109145761091361075c565b5b610920868287016108a2565b925050604084013567ffffffffffffffff8111156109415761094061075c565b5b61094d868287016108a2565b9150509250925092565b5f6020828403121561096c5761096b610758565b5b5f6109798482850161077f565b91505092915050565b61098b81610760565b82525050565b5f81519050919050565b5f82825260208201905092915050565b8281835e5f83830152505050565b5f6109c382610991565b6109cd818561099b565b93506109dd8185602086016109ab565b6109e68161079b565b840191505092915050565b5f606082019050610a045f830186610982565b8181036020830152610a1681856109b9565b90508181036040830152610a2a81846109b9565b9050949350505050565b5f5f60408385031215610a4a57610a49610758565b5b5f610a578582860161077f565b925050602083013567ffffffffffffffff811115610a7857610a7761075c565b5b610a84858286016108a2565b9150509250929050565b7f4e487b71000000000000000000000000000000000000000000000000000000005f52602260045260245ffd5b5f6002820490506001821680610ad257607f821691505b602082108103610ae557610ae4610a8e565b5b50919050565b5f819050815f5260205f209050919050565b5f6020601f8301049050919050565b5f82821b905092915050565b5f60088302610b477fffffffffffffffffffffffffffffffffffffffffffffffffffffffffffffffff82610b0c565b610b518683610b0c565b95508019841693508086168417925050509392505050565b5f819050919050565b5f610b8c610b87610b8284610760565b610b69565b610760565b9050919050565b5f819050919050565b610ba583610b72565b610bb9610bb182610b93565b848454610b18565b825550505050565b5f5f905090565b610bd0610bc1565b610bdb818484610b9c565b505050565b5b81811015610bfe57610bf35f82610bc8565b600181019050610be1565b5050565b601f821115610c4357610c1481610aeb565b610c1d84610afd565b81016020851015610c2c578190505b610c40610c3885610afd565b830182610be0565b50505b505050565b5f82821c905092915050565b5f610c635f1984600802610c48565b1980831691505092915050565b5f610c7b8383610c54565b9150826002028217905092915050565b610c9482610991565b67ffffffffffffffff811115610cad57610cac6107ab565b5b610cb78254610abb565b610cc2828285610c02565b5f60209050601f831160018114610cf3575f8415610ce1578287015190505b610ceb8582610c70565b865550610d52565b601f198416610d0186610aeb565b5f5b82811015610d2857848901518255600182019150602085019450602081019050610d03565b86831015610d455784890151610d41601f891682610c54565b8355505b6001600288020188555050505b505050505050565b7f497373756520646f6573206e6f742065786973740000000000000000000000005f82015250565b5f610d8e60148361099b565b9150610d9982610d5a565b602082019050919050565b5f6020820190508181035f830152610dbb81610d82565b9050919050565b7f496e76616c696420737461747573207472616e736974696f6e000000000000005f82015250565b5f610df660198361099b565b9150610e0182610dc2565b602082019050919050565b5f6020820190508181035f830152610e2381610dea565b9050919050565b7f4e487b71000000000000000000000000000000000000000000000000000000005f52603260045260245ffdfea2646970667358221220e1ea1a145c2af296fbfa243d35da81c8b44656957f63f3fc02239c3903e0bdb864736f6c634300081e0033",
			"opcodes": "PUSH1 0x80 PUSH1 0x40 MSTORE CALLVALUE DUP1 ISZERO PUSH1 0xE JUMPI PUSH0 PUSH0 REVERT JUMPDEST POP PUSH2 0xE8D DUP1 PUSH2 0x1C PUSH0 CODECOPY PUSH0 RETURN INVALID PUSH1 0x80 PUSH1 0x40 MSTORE CALLVALUE DUP1 ISZERO PUSH2 0xF JUMPI PUSH0 PUSH0 REVERT JUMPDEST POP PUSH1 0x4 CALLDATASIZE LT PUSH2 0x3F JUMPI PUSH0 CALLDATALOAD PUSH1 0xE0 SHR DUP1 PUSH4 0x20FB32B4 EQ PUSH2 0x43 JUMPI DUP1 PUSH4 0xCE7B0E28 EQ PUSH2 0x5F JUMPI DUP1 PUSH4 0xCFAB642D EQ PUSH2 0x91 JUMPI JUMPDEST PUSH0 PUSH0 REVERT JUMPDEST PUSH2 0x5D PUSH1 0x4 DUP1 CALLDATASIZE SUB DUP2 ADD SWAP1 PUSH2 0x58 SWAP2 SWAP1 PUSH2 0x8CF JUMP JUMPDEST PUSH2 0xAD JUMP JUMPDEST STOP JUMPDEST PUSH2 0x79 PUSH1 0x4 DUP1 CALLDATASIZE SUB DUP2 ADD SWAP1 PUSH2 0x74 SWAP2 SWAP1 PUSH2 0x957 JUMP JUMPDEST PUSH2 0x119 JUMP JUMPDEST PUSH1 0x40 MLOAD PUSH2 0x88 SWAP4 SWAP3 SWAP2 SWAP1 PUSH2 0x9F1 JUMP JUMPDEST PUSH1 0x40 MLOAD DUP1 SWAP2 SUB SWAP1 RETURN JUMPDEST PUSH2 0xAB PUSH1 0x4 DUP1 CALLDATASIZE SUB DUP2 ADD SWAP1 PUSH2 0xA6 SWAP2 SWAP1 PUSH2 0xA34 JUMP JUMPDEST PUSH2 0x24A JUMP JUMPDEST STOP JUMPDEST PUSH0 PUSH1 0x40 MLOAD DUP1 PUSH1 0x60 ADD PUSH1 0x40 MSTORE DUP1 DUP6 DUP2 MSTORE PUSH1 0x20 ADD DUP5 DUP2 MSTORE PUSH1 0x20 ADD DUP4 DUP2 MSTORE POP SWAP1 POP DUP1 PUSH0 PUSH0 DUP7 DUP2 MSTORE PUSH1 0x20 ADD SWAP1 DUP2 MSTORE PUSH1 0x20 ADD PUSH0 KECCAK256 PUSH0 DUP3 ADD MLOAD DUP2 PUSH0 ADD SSTORE PUSH1 0x20 DUP3 ADD MLOAD DUP2 PUSH1 0x1 ADD SWAP1 DUP2 PUSH2 0xF9 SWAP2 SWAP1 PUSH2 0xC8B JUMP JUMPDEST POP PUSH1 0x40 DUP3 ADD MLOAD DUP2 PUSH1 0x2 ADD SWAP1 DUP2 PUSH2 0x10F SWAP2 SWAP1 PUSH2 0xC8B JUMP JUMPDEST POP SWAP1 POP POP POP POP POP POP JUMP JUMPDEST PUSH0 PUSH1 0x20 MSTORE DUP1 PUSH0 MSTORE PUSH1 0x40 PUSH0 KECCAK256 PUSH0 SWAP2 POP SWAP1 POP DUP1 PUSH0 ADD SLOAD SWAP1 DUP1 PUSH1 0x1 ADD DUP1 SLOAD PUSH2 0x13D SWAP1 PUSH2 0xABB JUMP JUMPDEST DUP1 PUSH1 0x1F ADD PUSH1 0x20 DUP1 SWAP2 DIV MUL PUSH1 0x20 ADD PUSH1 0x40 MLOAD SWAP1 DUP2 ADD PUSH1 0x40 MSTORE DUP1 SWAP3 SWAP2 SWAP1 DUP2 DUP2 MSTORE PUSH1 0x20 ADD DUP3 DUP1 SLOAD PUSH2 0x169 SWAP1 PUSH2 0xABB JUMP JUMPDEST DUP1 ISZERO PUSH2 0x1B4 JUMPI DUP1 PUSH1 0x1F LT PUSH2 0x18B JUMPI PUSH2 0x100 DUP1 DUP4 SLOAD DIV MUL DUP4 MSTORE SWAP2 PUSH1 0x20 ADD SWAP2 PUSH2 0x1B4 JUMP JUMPDEST DUP3 ADD SWAP2 SWAP1 PUSH0 MSTORE PUSH1 0x20 PUSH0 KECCAK256 SWAP1 JUMPDEST DUP2 SLOAD DUP2 MSTORE SWAP1 PUSH1 0x1 ADD SWAP1 PUSH1 0x20 ADD DUP1 DUP4 GT PUSH2 0x197 JUMPI DUP3 SWAP1 SUB PUSH1 0x1F AND DUP3 ADD SWAP2 JUMPDEST POP POP POP POP POP SWAP1 DUP1 PUSH1 0x2 ADD DUP1 SLOAD PUSH2 0x1C9 SWAP1 PUSH2 0xABB JUMP JUMPDEST DUP1 PUSH1 0x1F ADD PUSH1 0x20 DUP1 SWAP2 DIV MUL PUSH1 0x20 ADD PUSH1 0x40 MLOAD SWAP1 DUP2 ADD PUSH1 0x40 MSTORE DUP1 SWAP3 SWAP2 SWAP1 DUP2 DUP2 MSTORE PUSH1 0x20 ADD DUP3 DUP1 SLOAD PUSH2 0x1F5 SWAP1 PUSH2 0xABB JUMP JUMPDEST DUP1 ISZERO PUSH2 0x240 JUMPI DUP1 PUSH1 0x1F LT PUSH2 0x217 JUMPI PUSH2 0x100 DUP1 DUP4 SLOAD DIV MUL DUP4 MSTORE SWAP2 PUSH1 0x20 ADD SWAP2 PUSH2 0x240 JUMP JUMPDEST DUP3 ADD SWAP2 SWAP1 PUSH0 MSTORE PUSH1 0x20 PUSH0 KECCAK256 SWAP1 JUMPDEST DUP2 SLOAD DUP2 MSTORE SWAP1 PUSH1 0x1 ADD SWAP1 PUSH1 0x20 ADD DUP1 DUP4 GT PUSH2 0x223 JUMPI DUP3 SWAP1 SUB PUSH1 0x1F AND DUP3 ADD SWAP2 JUMPDEST POP POP POP POP POP SWAP1 POP DUP4 JUMP JUMPDEST PUSH0 PUSH0 PUSH0 DUP5 DUP2 MSTORE PUSH1 0x20 ADD SWAP1 DUP2 MSTORE PUSH1 0x20 ADD PUSH0 KECCAK256 SWAP1 POP PUSH0 DUP2 PUSH1 0x1 ADD DUP1 SLOAD PUSH2 0x26D SWAP1 PUSH2 0xABB JUMP JUMPDEST SWAP1 POP SUB PUSH2 0x2AF JUMPI PUSH1 0x40 MLOAD PUSH32 0x8C379A000000000000000000000000000000000000000000000000000000000 DUP2 MSTORE PUSH1 0x4 ADD PUSH2 0x2A6 SWAP1 PUSH2 0xDA4 JUMP JUMPDEST PUSH1 0x40 MLOAD DUP1 SWAP2 SUB SWAP1 REVERT JUMPDEST PUSH0 DUP2 PUSH1 0x2 ADD DUP1 SLOAD PUSH2 0x2BF SWAP1 PUSH2 0xABB JUMP JUMPDEST DUP1 PUSH1 0x1F ADD PUSH1 0x20 DUP1 SWAP2 DIV MUL PUSH1 0x20 ADD PUSH1 0x40 MLOAD SWAP1 DUP2 ADD PUSH1 0x40 MSTORE DUP1 SWAP3 SWAP2 SWAP1 DUP2 DUP2 MSTORE PUSH1 0x20 ADD DUP3 DUP1 SLOAD PUSH2 0x2EB SWAP1 PUSH2 0xABB JUMP JUMPDEST DUP1 ISZERO PUSH2 0x336 JUMPI DUP1 PUSH1 0x1F LT PUSH2 0x30D JUMPI PUSH2 0x100 DUP1 DUP4 SLOAD DIV MUL DUP4 MSTORE SWAP2 PUSH1 0x20 ADD SWAP2 PUSH2 0x336 JUMP JUMPDEST DUP3 ADD SWAP2 SWAP1 PUSH0 MSTORE PUSH1 0x20 PUSH0 KECCAK256 SWAP1 JUMPDEST DUP2 SLOAD DUP2 MSTORE SWAP1 PUSH1 0x1 ADD SWAP1 PUSH1 0x20 ADD DUP1 DUP4 GT PUSH2 0x319 JUMPI DUP3 SWAP1 SUB PUSH1 0x1F AND DUP3 ADD SWAP2 JUMPDEST POP POP POP POP POP SWAP1 POP PUSH2 0x37C DUP2 PUSH1 0x40 MLOAD DUP1 PUSH1 0x40 ADD PUSH1 0x40 MSTORE DUP1 PUSH1 0x6 DUP2 MSTORE PUSH1 0x20 ADD PUSH32 0x4143544956450000000000000000000000000000000000000000000000000000 DUP2 MSTORE POP PUSH2 0x566 JUMP JUMPDEST DUP1 ISZERO PUSH2 0x3C3 JUMPI POP PUSH2 0x3C2 DUP4 PUSH1 0x40 MLOAD DUP1 PUSH1 0x40 ADD PUSH1 0x40 MSTORE DUP1 PUSH1 0xB DUP2 MSTORE PUSH1 0x20 ADD PUSH32 0x494E5F50524F4752455353000000000000000000000000000000000000000000 DUP2 MSTORE POP PUSH2 0x566 JUMP JUMPDEST JUMPDEST ISZERO PUSH2 0x3DF JUMPI DUP3 DUP3 PUSH1 0x2 ADD SWAP1 DUP2 PUSH2 0x3D9 SWAP2 SWAP1 PUSH2 0xC8B JUMP JUMPDEST POP PUSH2 0x560 JUMP JUMPDEST PUSH2 0x41E DUP2 PUSH1 0x40 MLOAD DUP1 PUSH1 0x40 ADD PUSH1 0x40 MSTORE DUP1 PUSH1 0xB DUP2 MSTORE PUSH1 0x20 ADD PUSH32 0x494E5F50524F4752455353000000000000000000000000000000000000000000 DUP2 MSTORE POP PUSH2 0x566 JUMP JUMPDEST DUP1 ISZERO PUSH2 0x465 JUMPI POP PUSH2 0x464 DUP4 PUSH1 0x40 MLOAD DUP1 PUSH1 0x40 ADD PUSH1 0x40 MSTORE DUP1 PUSH1 0x8 DUP2 MSTORE PUSH1 0x20 ADD PUSH32 0x434F4D504C455445000000000000000000000000000000000000000000000000 DUP2 MSTORE POP PUSH2 0x566 JUMP JUMPDEST JUMPDEST ISZERO PUSH2 0x481 JUMPI DUP3 DUP3 PUSH1 0x2 ADD SWAP1 DUP2 PUSH2 0x47B SWAP2 SWAP1 PUSH2 0xC8B JUMP JUMPDEST POP PUSH2 0x55F JUMP JUMPDEST PUSH2 0x4C0 DUP2 PUSH1 0x40 MLOAD DUP1 PUSH1 0x40 ADD PUSH1 0x40 MSTORE DUP1 PUSH1 0x8 DUP2 MSTORE PUSH1 0x20 ADD PUSH32 0x434F4D504C455445000000000000000000000000000000000000000000000000 DUP2 MSTORE POP PUSH2 0x566 JUMP JUMPDEST DUP1 ISZERO PUSH2 0x507 JUMPI POP PUSH2 0x506 DUP4 PUSH1 0x40 MLOAD DUP1 PUSH1 0x40 ADD PUSH1 0x40 MSTORE DUP1 PUSH1 0x6 DUP2 MSTORE PUSH1 0x20 ADD PUSH32 0x434C4F5345440000000000000000000000000000000000000000000000000000 DUP2 MSTORE POP PUSH2 0x566 JUMP JUMPDEST JUMPDEST ISZERO PUSH2 0x523 JUMPI DUP3 DUP3 PUSH1 0x2 ADD SWAP1 DUP2 PUSH2 0x51D SWAP2 SWAP1 PUSH2 0xC8B JUMP JUMPDEST POP PUSH2 0x55E JUMP JUMPDEST PUSH1 0x40 MLOAD PUSH32 0x8C379A000000000000000000000000000000000000000000000000000000000 DUP2 MSTORE PUSH1 0x4 ADD PUSH2 0x555 SWAP1 PUSH2 0xE0C JUMP JUMPDEST PUSH1 0x40 MLOAD DUP1 SWAP2 SUB SWAP1 REVERT JUMPDEST JUMPDEST JUMPDEST POP POP POP POP JUMP JUMPDEST PUSH0 PUSH0 PUSH2 0x572 DUP5 DUP5 PUSH2 0x57B JUMP JUMPDEST EQ SWAP1 POP SWAP3 SWAP2 POP POP JUMP JUMPDEST PUSH0 PUSH0 DUP4 SWAP1 POP PUSH0 DUP4 SWAP1 POP PUSH0 DUP3 MLOAD SWAP1 POP DUP1 DUP3 MLOAD LT ISZERO PUSH2 0x597 JUMPI DUP2 MLOAD SWAP1 POP JUMPDEST PUSH0 PUSH0 SWAP1 POP JUMPDEST DUP2 DUP2 LT ISZERO PUSH2 0x6F6 JUMPI DUP3 DUP2 DUP2 MLOAD DUP2 LT PUSH2 0x5B7 JUMPI PUSH2 0x5B6 PUSH2 0xE2A JUMP JUMPDEST JUMPDEST PUSH1 0x20 ADD ADD MLOAD PUSH1 0xF8 SHR PUSH1 0xF8 SHL PUSH31 0xFFFFFFFFFFFFFFFFFFFFFFFFFFFFFFFFFFFFFFFFFFFFFFFFFFFFFFFFFFFFFF NOT AND DUP5 DUP3 DUP2 MLOAD DUP2 LT PUSH2 0x5F7 JUMPI PUSH2 0x5F6 PUSH2 0xE2A JUMP JUMPDEST JUMPDEST PUSH1 0x20 ADD ADD MLOAD PUSH1 0xF8 SHR PUSH1 0xF8 SHL PUSH31 0xFFFFFFFFFFFFFFFFFFFFFFFFFFFFFFFFFFFFFFFFFFFFFFFFFFFFFFFFFFFFFF NOT AND LT ISZERO PUSH2 0x656 JUMPI PUSH32 0xFFFFFFFFFFFFFFFFFFFFFFFFFFFFFFFFFFFFFFFFFFFFFFFFFFFFFFFFFFFFFFFF SWAP5 POP POP POP POP POP PUSH2 0x749 JUMP JUMPDEST DUP3 DUP2 DUP2 MLOAD DUP2 LT PUSH2 0x669 JUMPI PUSH2 0x668 PUSH2 0xE2A JUMP JUMPDEST JUMPDEST PUSH1 0x20 ADD ADD MLOAD PUSH1 0xF8 SHR PUSH1 0xF8 SHL PUSH31 0xFFFFFFFFFFFFFFFFFFFFFFFFFFFFFFFFFFFFFFFFFFFFFFFFFFFFFFFFFFFFFF NOT AND DUP5 DUP3 DUP2 MLOAD DUP2 LT PUSH2 0x6A9 JUMPI PUSH2 0x6A8 PUSH2 0xE2A JUMP JUMPDEST JUMPDEST PUSH1 0x20 ADD ADD MLOAD PUSH1 0xF8 SHR PUSH1 0xF8 SHL PUSH31 0xFFFFFFFFFFFFFFFFFFFFFFFFFFFFFFFFFFFFFFFFFFFFFFFFFFFFFFFFFFFFFF NOT AND GT ISZERO PUSH2 0x6E9 JUMPI PUSH1 0x1 SWAP5 POP POP POP POP POP PUSH2 0x749 JUMP JUMPDEST DUP1 DUP1 PUSH1 0x1 ADD SWAP2 POP POP PUSH2 0x59C JUMP JUMPDEST POP DUP2 MLOAD DUP4 MLOAD LT ISZERO PUSH2 0x72C JUMPI PUSH32 0xFFFFFFFFFFFFFFFFFFFFFFFFFFFFFFFFFFFFFFFFFFFFFFFFFFFFFFFFFFFFFFFF SWAP4 POP POP POP POP PUSH2 0x749 JUMP JUMPDEST DUP2 MLOAD DUP4 MLOAD GT ISZERO PUSH2 0x742 JUMPI PUSH1 0x1 SWAP4 POP POP POP POP PUSH2 0x749 JUMP JUMPDEST PUSH0 SWAP4 POP POP POP POP JUMPDEST SWAP3 SWAP2 POP POP JUMP JUMPDEST PUSH0 PUSH1 0x40 MLOAD SWAP1 POP SWAP1 JUMP JUMPDEST PUSH0 PUSH0 REVERT JUMPDEST PUSH0 PUSH0 REVERT JUMPDEST PUSH0 DUP2 SWAP1 POP SWAP2 SWAP1 POP JUMP JUMPDEST PUSH2 0x772 DUP2 PUSH2 0x760 JUMP JUMPDEST DUP2 EQ PUSH2 0x77C JUMPI PUSH0 PUSH0 REVERT JUMPDEST POP JUMP JUMPDEST PUSH0 DUP2 CALLDATALOAD SWAP1 POP PUSH2 0x78D DUP2 PUSH2 0x769 JUMP JUMPDEST SWAP3 SWAP2 POP POP JUMP JUMPDEST PUSH0 PUSH0 REVERT JUMPDEST PUSH0 PUSH0 REVERT JUMPDEST PUSH0 PUSH1 0x1F NOT PUSH1 0x1F DUP4 ADD AND SWAP1 POP SWAP2 SWAP1 POP JUMP JUMPDEST PUSH32 0x4E487B7100000000000000000000000000000000000000000000000000000000 PUSH0 MSTORE PUSH1 0x41 PUSH1 0x4 MSTORE PUSH1 0x24 PUSH0 REVERT JUMPDEST PUSH2 0x7E1 DUP3 PUSH2 0x79B JUMP JUMPDEST DUP2 ADD DUP2 DUP2 LT PUSH8 0xFFFFFFFFFFFFFFFF DUP3 GT OR ISZERO PUSH2 0x800 JUMPI PUSH2 0x7FF PUSH2 0x7AB JUMP JUMPDEST JUMPDEST DUP1 PUSH1 0x40 MSTORE POP POP POP JUMP JUMPDEST PUSH0 PUSH2 0x812 PUSH2 0x74F JUMP JUMPDEST SWAP1 POP PUSH2 0x81E DUP3 DUP3 PUSH2 0x7D8 JUMP JUMPDEST SWAP2 SWAP1 POP JUMP JUMPDEST PUSH0 PUSH8 0xFFFFFFFFFFFFFFFF DUP3 GT ISZERO PUSH2 0x83D JUMPI PUSH2 0x83C PUSH2 0x7AB JUMP JUMPDEST JUMPDEST PUSH2 0x846 DUP3 PUSH2 0x79B JUMP JUMPDEST SWAP1 POP PUSH1 0x20 DUP2 ADD SWAP1 POP SWAP2 SWAP1 POP JUMP JUMPDEST DUP3 DUP2 DUP4 CALLDATACOPY PUSH0 DUP4 DUP4 ADD MSTORE POP POP POP JUMP JUMPDEST PUSH0 PUSH2 0x873 PUSH2 0x86E DUP5 PUSH2 0x823 JUMP JUMPDEST PUSH2 0x809 JUMP JUMPDEST SWAP1 POP DUP3 DUP2 MSTORE PUSH1 0x20 DUP2 ADD DUP5 DUP5 DUP5 ADD GT ISZERO PUSH2 0x88F JUMPI PUSH2 0x88E PUSH2 0x797 JUMP JUMPDEST JUMPDEST PUSH2 0x89A DUP5 DUP3 DUP6 PUSH2 0x853 JUMP JUMPDEST POP SWAP4 SWAP3 POP POP POP JUMP JUMPDEST PUSH0 DUP3 PUSH1 0x1F DUP4 ADD SLT PUSH2 0x8B6 JUMPI PUSH2 0x8B5 PUSH2 0x793 JUMP JUMPDEST JUMPDEST DUP2 CALLDATALOAD PUSH2 0x8C6 DUP5 DUP3 PUSH1 0x20 DUP7 ADD PUSH2 0x861 JUMP JUMPDEST SWAP2 POP POP SWAP3 SWAP2 POP POP JUMP JUMPDEST PUSH0 PUSH0 PUSH0 PUSH1 0x60 DUP5 DUP7 SUB SLT ISZERO PUSH2 0x8E6 JUMPI PUSH2 0x8E5 PUSH2 0x758 JUMP JUMPDEST JUMPDEST PUSH0 PUSH2 0x8F3 DUP7 DUP3 DUP8 ADD PUSH2 0x77F JUMP JUMPDEST SWAP4 POP POP PUSH1 0x20 DUP5 ADD CALLDATALOAD PUSH8 0xFFFFFFFFFFFFFFFF DUP2 GT ISZERO PUSH2 0x914 JUMPI PUSH2 0x913 PUSH2 0x75C JUMP JUMPDEST JUMPDEST PUSH2 0x920 DUP7 DUP3 DUP8 ADD PUSH2 0x8A2 JUMP JUMPDEST SWAP3 POP POP PUSH1 0x40 DUP5 ADD CALLDATALOAD PUSH8 0xFFFFFFFFFFFFFFFF DUP2 GT ISZERO PUSH2 0x941 JUMPI PUSH2 0x940 PUSH2 0x75C JUMP JUMPDEST JUMPDEST PUSH2 0x94D DUP7 DUP3 DUP8 ADD PUSH2 0x8A2 JUMP JUMPDEST SWAP2 POP POP SWAP3 POP SWAP3 POP SWAP3 JUMP JUMPDEST PUSH0 PUSH1 0x20 DUP3 DUP5 SUB SLT ISZERO PUSH2 0x96C JUMPI PUSH2 0x96B PUSH2 0x758 JUMP JUMPDEST JUMPDEST PUSH0 PUSH2 0x979 DUP5 DUP3 DUP6 ADD PUSH2 0x77F JUMP JUMPDEST SWAP2 POP POP SWAP3 SWAP2 POP POP JUMP JUMPDEST PUSH2 0x98B DUP2 PUSH2 0x760 JUMP JUMPDEST DUP3 MSTORE POP POP JUMP JUMPDEST PUSH0 DUP2 MLOAD SWAP1 POP SWAP2 SWAP1 POP JUMP JUMPDEST PUSH0 DUP3 DUP3 MSTORE PUSH1 0x20 DUP3 ADD SWAP1 POP SWAP3 SWAP2 POP POP JUMP JUMPDEST DUP3 DUP2 DUP4 MCOPY PUSH0 DUP4 DUP4 ADD MSTORE POP POP POP JUMP JUMPDEST PUSH0 PUSH2 0x9C3 DUP3 PUSH2 0x991 JUMP JUMPDEST PUSH2 0x9CD DUP2 DUP6 PUSH2 0x99B JUMP JUMPDEST SWAP4 POP PUSH2 0x9DD DUP2 DUP6 PUSH1 0x20 DUP7 ADD PUSH2 0x9AB JUMP JUMPDEST PUSH2 0x9E6 DUP2 PUSH2 0x79B JUMP JUMPDEST DUP5 ADD SWAP2 POP POP SWAP3 SWAP2 POP POP JUMP JUMPDEST PUSH0 PUSH1 0x60 DUP3 ADD SWAP1 POP PUSH2 0xA04 PUSH0 DUP4 ADD DUP7 PUSH2 0x982 JUMP JUMPDEST DUP2 DUP2 SUB PUSH1 0x20 DUP4 ADD MSTORE PUSH2 0xA16 DUP2 DUP6 PUSH2 0x9B9 JUMP JUMPDEST SWAP1 POP DUP2 DUP2 SUB PUSH1 0x40 DUP4 ADD MSTORE PUSH2 0xA2A DUP2 DUP5 PUSH2 0x9B9 JUMP JUMPDEST SWAP1 POP SWAP5 SWAP4 POP POP POP POP JUMP JUMPDEST PUSH0 PUSH0 PUSH1 0x40 DUP4 DUP6 SUB SLT ISZERO PUSH2 0xA4A JUMPI PUSH2 0xA49 PUSH2 0x758 JUMP JUMPDEST JUMPDEST PUSH0 PUSH2 0xA57 DUP6 DUP3 DUP7 ADD PUSH2 0x77F JUMP JUMPDEST SWAP3 POP POP PUSH1 0x20 DUP4 ADD CALLDATALOAD PUSH8 0xFFFFFFFFFFFFFFFF DUP2 GT ISZERO PUSH2 0xA78 JUMPI PUSH2 0xA77 PUSH2 0x75C JUMP JUMPDEST JUMPDEST PUSH2 0xA84 DUP6 DUP3 DUP7 ADD PUSH2 0x8A2 JUMP JUMPDEST SWAP2 POP POP SWAP3 POP SWAP3 SWAP1 POP JUMP JUMPDEST PUSH32 0x4E487B7100000000000000000000000000000000000000000000000000000000 PUSH0 MSTORE PUSH1 0x22 PUSH1 0x4 MSTORE PUSH1 0x24 PUSH0 REVERT JUMPDEST PUSH0 PUSH1 0x2 DUP3 DIV SWAP1 POP PUSH1 0x1 DUP3 AND DUP1 PUSH2 0xAD2 JUMPI PUSH1 0x7F DUP3 AND SWAP2 POP JUMPDEST PUSH1 0x20 DUP3 LT DUP2 SUB PUSH2 0xAE5 JUMPI PUSH2 0xAE4 PUSH2 0xA8E JUMP JUMPDEST JUMPDEST POP SWAP2 SWAP1 POP JUMP JUMPDEST PUSH0 DUP2 SWAP1 POP DUP2 PUSH0 MSTORE PUSH1 0x20 PUSH0 KECCAK256 SWAP1 POP SWAP2 SWAP1 POP JUMP JUMPDEST PUSH0 PUSH1 0x20 PUSH1 0x1F DUP4 ADD DIV SWAP1 POP SWAP2 SWAP1 POP JUMP JUMPDEST PUSH0 DUP3 DUP3 SHL SWAP1 POP SWAP3 SWAP2 POP POP JUMP JUMPDEST PUSH0 PUSH1 0x8 DUP4 MUL PUSH2 0xB47 PUSH32 0xFFFFFFFFFFFFFFFFFFFFFFFFFFFFFFFFFFFFFFFFFFFFFFFFFFFFFFFFFFFFFFFF DUP3 PUSH2 0xB0C JUMP JUMPDEST PUSH2 0xB51 DUP7 DUP4 PUSH2 0xB0C JUMP JUMPDEST SWAP6 POP DUP1 NOT DUP5 AND SWAP4 POP DUP1 DUP7 AND DUP5 OR SWAP3 POP POP POP SWAP4 SWAP3 POP POP POP JUMP JUMPDEST PUSH0 DUP2 SWAP1 POP SWAP2 SWAP1 POP JUMP JUMPDEST PUSH0 PUSH2 0xB8C PUSH2 0xB87 PUSH2 0xB82 DUP5 PUSH2 0x760 JUMP JUMPDEST PUSH2 0xB69 JUMP JUMPDEST PUSH2 0x760 JUMP JUMPDEST SWAP1 POP SWAP2 SWAP1 POP JUMP JUMPDEST PUSH0 DUP2 SWAP1 POP SWAP2 SWAP1 POP JUMP JUMPDEST PUSH2 0xBA5 DUP4 PUSH2 0xB72 JUMP JUMPDEST PUSH2 0xBB9 PUSH2 0xBB1 DUP3 PUSH2 0xB93 JUMP JUMPDEST DUP5 DUP5 SLOAD PUSH2 0xB18 JUMP JUMPDEST DUP3 SSTORE POP POP POP POP JUMP JUMPDEST PUSH0 PUSH0 SWAP1 POP SWAP1 JUMP JUMPDEST PUSH2 0xBD0 PUSH2 0xBC1 JUMP JUMPDEST PUSH2 0xBDB DUP2 DUP5 DUP5 PUSH2 0xB9C JUMP JUMPDEST POP POP POP JUMP JUMPDEST JUMPDEST DUP2 DUP2 LT ISZERO PUSH2 0xBFE JUMPI PUSH2 0xBF3 PUSH0 DUP3 PUSH2 0xBC8 JUMP JUMPDEST PUSH1 0x1 DUP2 ADD SWAP1 POP PUSH2 0xBE1 JUMP JUMPDEST POP POP JUMP JUMPDEST PUSH1 0x1F DUP3 GT ISZERO PUSH2 0xC43 JUMPI PUSH2 0xC14 DUP2 PUSH2 0xAEB JUMP JUMPDEST PUSH2 0xC1D DUP5 PUSH2 0xAFD JUMP JUMPDEST DUP2 ADD PUSH1 0x20 DUP6 LT ISZERO PUSH2 0xC2C JUMPI DUP2 SWAP1 POP JUMPDEST PUSH2 0xC40 PUSH2 0xC38 DUP6 PUSH2 0xAFD JUMP JUMPDEST DUP4 ADD DUP3 PUSH2 0xBE0 JUMP JUMPDEST POP POP JUMPDEST POP POP POP JUMP JUMPDEST PUSH0 DUP3 DUP3 SHR SWAP1 POP SWAP3 SWAP2 POP POP JUMP JUMPDEST PUSH0 PUSH2 0xC63 PUSH0 NOT DUP5 PUSH1 0x8 MUL PUSH2 0xC48 JUMP JUMPDEST NOT DUP1 DUP4 AND SWAP2 POP POP SWAP3 SWAP2 POP POP JUMP JUMPDEST PUSH0 PUSH2 0xC7B DUP4 DUP4 PUSH2 0xC54 JUMP JUMPDEST SWAP2 POP DUP3 PUSH1 0x2 MUL DUP3 OR SWAP1 POP SWAP3 SWAP2 POP POP JUMP JUMPDEST PUSH2 0xC94 DUP3 PUSH2 0x991 JUMP JUMPDEST PUSH8 0xFFFFFFFFFFFFFFFF DUP2 GT ISZERO PUSH2 0xCAD JUMPI PUSH2 0xCAC PUSH2 0x7AB JUMP JUMPDEST JUMPDEST PUSH2 0xCB7 DUP3 SLOAD PUSH2 0xABB JUMP JUMPDEST PUSH2 0xCC2 DUP3 DUP3 DUP6 PUSH2 0xC02 JUMP JUMPDEST PUSH0 PUSH1 0x20 SWAP1 POP PUSH1 0x1F DUP4 GT PUSH1 0x1 DUP2 EQ PUSH2 0xCF3 JUMPI PUSH0 DUP5 ISZERO PUSH2 0xCE1 JUMPI DUP3 DUP8 ADD MLOAD SWAP1 POP JUMPDEST PUSH2 0xCEB DUP6 DUP3 PUSH2 0xC70 JUMP JUMPDEST DUP7 SSTORE POP PUSH2 0xD52 JUMP JUMPDEST PUSH1 0x1F NOT DUP5 AND PUSH2 0xD01 DUP7 PUSH2 0xAEB JUMP JUMPDEST PUSH0 JUMPDEST DUP3 DUP2 LT ISZERO PUSH2 0xD28 JUMPI DUP5 DUP10 ADD MLOAD DUP3 SSTORE PUSH1 0x1 DUP3 ADD SWAP2 POP PUSH1 0x20 DUP6 ADD SWAP5 POP PUSH1 0x20 DUP2 ADD SWAP1 POP PUSH2 0xD03 JUMP JUMPDEST DUP7 DUP4 LT ISZERO PUSH2 0xD45 JUMPI DUP5 DUP10 ADD MLOAD PUSH2 0xD41 PUSH1 0x1F DUP10 AND DUP3 PUSH2 0xC54 JUMP JUMPDEST DUP4 SSTORE POP JUMPDEST PUSH1 0x1 PUSH1 0x2 DUP9 MUL ADD DUP9 SSTORE POP POP POP JUMPDEST POP POP POP POP POP POP JUMP JUMPDEST PUSH32 0x497373756520646F6573206E6F74206578697374000000000000000000000000 PUSH0 DUP3 ADD MSTORE POP JUMP JUMPDEST PUSH0 PUSH2 0xD8E PUSH1 0x14 DUP4 PUSH2 0x99B JUMP JUMPDEST SWAP2 POP PUSH2 0xD99 DUP3 PUSH2 0xD5A JUMP JUMPDEST PUSH1 0x20 DUP3 ADD SWAP1 POP SWAP2 SWAP1 POP JUMP JUMPDEST PUSH0 PUSH1 0x20 DUP3 ADD SWAP1 POP DUP2 DUP2 SUB PUSH0 DUP4 ADD MSTORE PUSH2 0xDBB DUP2 PUSH2 0xD82 JUMP JUMPDEST SWAP1 POP SWAP2 SWAP1 POP JUMP JUMPDEST PUSH32 0x496E76616C696420737461747573207472616E736974696F6E00000000000000 PUSH0 DUP3 ADD MSTORE POP JUMP JUMPDEST PUSH0 PUSH2 0xDF6 PUSH1 0x19 DUP4 PUSH2 0x99B JUMP JUMPDEST SWAP2 POP PUSH2 0xE01 DUP3 PUSH2 0xDC2 JUMP JUMPDEST PUSH1 0x20 DUP3 ADD SWAP1 POP SWAP2 SWAP1 POP JUMP JUMPDEST PUSH0 PUSH1 0x20 DUP3 ADD SWAP1 POP DUP2 DUP2 SUB PUSH0 DUP4 ADD MSTORE PUSH2 0xE23 DUP2 PUSH2 0xDEA JUMP JUMPDEST SWAP1 POP SWAP2 SWAP1 POP JUMP JUMPDEST PUSH32 0x4E487B7100000000000000000000000000000000000000000000000000000000 PUSH0 MSTORE PUSH1 0x32 PUSH1 0x4 MSTORE PUSH1 0x24 PUSH0 REVERT INVALID LOG2 PUSH5 0x6970667358 0x22 SLT KECCAK256 RJUMPI 0xEA1A EQ TLOAD 0x2A CALLCODE SWAP7 EXTSTATICCALL STATICCALL 0x24 RETURNDATASIZE CALLDATALOAD 0xDA DUP2 0xC8 0xB4 CHAINID JUMP SWAP6 PUSH32 0x63F3FC02239C3903E0BDB864736F6C634300081E003300000000000000000000 "
		},
		"gasEstimates": {
			"creation": {
				"codeDepositCost": "745000",
				"executionCost": "777",
				"totalCost": "745777"
			},
			"external": {
				"addIssue(uint256,string,string)": "infinite",
				"issueList(uint256)": "infinite",
				"updateIssueStatus(uint256,string)": "infinite"
			}
		},
		"methodIdentifiers": {
			"addIssue(uint256,string,string)": "20fb32b4",
			"issueList(uint256)": "ce7b0e28",
			"updateIssueStatus(uint256,string)": "cfab642d"
		}
	},
	"abi": [
		{
			"inputs": [
				{
					"internalType": "uint256",
					"name": "_issueId",
					"type": "uint256"
				},
				{
					"internalType": "string",
					"name": "_description",
					"type": "string"
				},
				{
					"internalType": "string",
					"name": "_status",
					"type": "string"
				}
			],
			"name": "addIssue",
			"outputs": [],
			"stateMutability": "nonpayable",
			"type": "function"
		},
		{
			"inputs": [
				{
					"internalType": "uint256",
					"name": "",
					"type": "uint256"
				}
			],
			"name": "issueList",
			"outputs": [
				{
					"internalType": "uint256",
					"name": "issueId",
					"type": "uint256"
				},
				{
					"internalType": "string",
					"name": "description",
					"type": "string"
				},
				{
					"internalType": "string",
					"name": "status",
					"type": "string"
				}
			],
			"stateMutability": "view",
			"type": "function"
		},
		{
			"inputs": [
				{
					"internalType": "uint256",
					"name": "_issueId",
					"type": "uint256"
				},
				{
					"internalType": "string",
					"name": "_newStatus",
					"type": "string"
				}
			],
			"name": "updateIssueStatus",
			"outputs": [],
			"stateMutability": "nonpayable",
			"type": "function"
		}
	]
}